:020000040800F2
:10000000C8180020ED01000857290008352700080E
:100010001929000835050008953400080000000083
:10002000000000000000000000000000692B000834
:10003000F3060008000000002F2B00086B2B0008BF
:10004000070200080702000807020008070200086C
:10005000070200080702000807020008070200085C
:10006000070200080702000807020008070200084C
:100070000702000807020008B1060008BD060008D4
:10008000070200080702000807020008070200082C
:1000900039050008070200080702000807020008E7
:1000A000070200080702000807020008070200080C
:1000B000DD2B0008070200080702000807020008FD
:1000C00007020008070200080702000807020008EC
:1000D000070200082D340008070200080702000884
:1000E00007020008070200080702000800000000DD
:1000F0000000000000000000000000000000000000
:1001000000000000000000000702000807020008CD
:10011000070200080702000807020008070200089B
:10012000070200080702000807020008070200088B
:10013000070200080000000000000000070200089D
:10014000450500080702000807020008070200082A
:1001500000F002F800F03AF80AA090E8000C82449F
:100160008344AAF10107DA4501D100F02FF8AFF27C
:10017000090EBAE80F0013F0010F18BFFB1A43F085
:10018000010318479C6C0000BC6C0000103A24BFAF
:1001900078C878C1FAD8520724BF30C830C144BFEC
:1001A00004680C607047000000230024002500262E
:1001B000103A28BF78C1FBD8520728BF30C148BFCA
:1001C0000B6070471FB51FBD10B510BD00F07DF965
:1001D0001146FFF7F7FF04F0EFFA00F09BF903B4C4
:1001E000FFF7F2FF03BC00F09FF9000009488047C9
:1001F00009480047FEE7FEE7FEE7FEE7FEE7FEE709
:10020000FEE7FEE7FEE7FEE704480549054A064B20
:1002100070470000D92B000851010008C8120020C7
:10022000C8180020C8140020C814002053EA020C8B
:1002300000F069802DE9F04B4FF00006002B1FBF46
:10024000B3FA83F503FA05F424FA05F65E4012BF0B
:100250001643B2FA82F502FA05F4C5F120051EBF75
:1002600022FA05FC44EA0C04203556EA044C4FEA15
:10027000144418BF641C4FF000084FF0000990426E
:1002800071EB030C39D3002919BFB1FA81F701FAD8
:1002900007F6B0FA80F700FA07F6C7F120071EBF8D
:1002A00020FA07FC46EA0C062037B6FBF4FCA7EB65
:1002B0000507103F07F01F0BCBF120060CFA0BFBD4
:1002C0002CFA06F644BFB3460026202FA4BF5E4694
:1002D0004FF0000B5BEA060C08BF4FF0010B19EB67
:1002E0000B09ABFB027C48EB0608C01B06FB02CCEB
:1002F0000BFB03CC71EB0C01C1E70B4602464146F8
:100300004846BDE8F08B13B54FF000004FF00001F8
:10031000AFF30080BDE81C407047032A40F23080F4
:1003200010F0030C00F0158011F8013BBCF1020F36
:10033000624498BF11F801CB00F8013B38BF11F8B7
:10034000013BA2F1040298BF00F801CB38BF00F8CE
:10035000013B11F0030300F07C80083AC0F00880F4
:1003600051F8043B083A51F804CBA0E80810F5E72F
:10037000121D5CBF51F8043B40F8043BAFF3008012
:10038000D20724BF11F8013B11F801CB48BF11F887
:10039000012B24BF00F8013B00F801CB48BF00F857
:1003A000012B70474FF000020429C0F0128010F0BA
:1003B000030C00F01B80CCF1040CBCF1020F18BF41
:1003C00000F8012BA8BF20F8022BA1EB0C0100F0D4
:1003D0000DB85FEAC17C24BF00F8012B00F8012BA7
:1003E00048BF00F8012B70474FF0000200B51346DC
:1003F00094469646203922BFA0E80C50A0E80C5045
:10040000B1F12001BFF4F7AF090728BFA0E80C50F5
:1004100048BF0CC05DF804EB890028BF40F8042BEE
:1004200008BF704748BF20F8022B11F0804F18BF5B
:1004300000F8012B704770477047704710B500F007
:100440003FF8006810BD10B5044600F039F80460AC
:1004500010BD10B5203AC0F00B80B1E81850203A1A
:10046000A0E81850B1E81850A0E81850BFF4F5AF54
:100470005FEA027C24BFB1E81850A0E8185044BFDE
:1004800018C918C0BDE810405FEA827C24BF51F84B
:10049000043B40F8043B08BF7047D20728BF31F83F
:1004A000023B48BF11F8012B28BF20F8023B48BF90
:1004B00000F8012B704700000048704764120020CC
:1004C000004870476412002070477546FFF7F4FF3C
:1004D000AE4605006946534620F00700854618B031
:1004E00020B5FFF791FEBDE820404FF000064FF029
:1004F00000074FF000084FF0000B21F00701AC4659
:10050000ACE8C009ACE8C009ACE8C009ACE8C00977
:100510008D46704710B50446AFF300802046BDE815
:100520001040FFF75CBE000001491820ABBEFEE79B
:1005300026000200FEE70000014800F04EBA00006D
:100540009C000020014800F048BA0000C4000020D0
:1005500038B50E4C4FF4007525600025A560E560A8
:10056000082525610A4C050A25706070080AA070EC
:10057000E170100A20716271180AA071E3716B4674
:1005800022460249034800F0C9F838BD4C02002059
:100590002A0000209C0000200A4908B540F2FF1202
:1005A0000A6000228A60CA6008220A610649020ABB
:1005B0006B460A7048700A460249044800F0AEF8DB
:1005C00008BD00007C0200203A0000209C000020B2
:1005D0000A4908B540F2FF220A6000228A60CA6018
:1005E00008220A610649020A6B460A7148710A46E6
:1005F0000249044800F092F808BD0000640200209F
:1006000032000020C400002010B50246FF20054B38
:1006100004E000BF12F8014B4440185D491EF9D2B6
:1006200010BD0000006A00080200094810B50088EB
:100630000BD0084B491E0AD312F8014B4440E4B2D8
:1006400033F8144084EA1020F4E74FF6FF7010BD31
:1006500092000020006B000800B58BB00020012143
:10066000CDE9060108910090019002900390059059
:10067000049069460C4800F0AFF80B4800F04CFCC1
:100680000221094800F038F80E20099005906946CB
:10069000064800F0A1F8054800F03EFC022103489E
:1006A00000F02AF80BB000BD9C000020C400002020
:1006B000014800F01FBD000008020020014800F0C2
:1006C00019BD0000C401002030B590F8405001244D
:1006D000AC40C56B6C60046863604368102B0368B2
:1006E00003D099600068C26030BD9A600068C16044
:1006F00030BD704772B6FEE790F82020012A07D07F
:10070000022A05D0416A41F48021416201207047EC
:10071000006842690A43426100207047F0B590F8D2
:1007200020500468A468012D05D0022D03D0416A31
:1007300041F480214DE014F0406F01D1E50045D532
:10074000C4F301640125A5401D608D684FF4C0739A
:100750009DB1CE6835434E6845EAC605066803EB91
:100760000417F5514FF4C275076805EB04150E69BF
:100770007E51097D012905D009E00E88CD6845EA42
:100780004655EBE701684E5946F480764E51117993
:10079000D2F805504FF4C67641EA0521056806EB0C
:1007A0000416A9511178D2F801204FF4C47541EA1A
:1007B0000221026805EB04155151006803EB041196
:1007C000425842F0010242500020F0BD416A41F41B
:1007D000001141620120F0BD10B590F82020012ADF
:1007E00007D0022A05D0416A41F4802141620120EC
:1007F00010BD3B48D0F8002242F00102C0F80022B0
:10080000D0F8002222F47C52C0F80022D0F8002256
:100810004B6A42EA0322C0F800220A7D02F01F035D
:1008200001229A40D0F81C329343C0F81C32CB69A5
:10083000B3B9D0F80C329343C0F80C328C894B68B2
:1008400064F31F434C6900EBC404C4F840320C89C4
:100850000B6864F31F434C6900EBC404C4F84432D2
:10086000CB69012B16D1D0F80C321343C0F80C32EF
:100870000C884B6864F31F434C6900EBC404C4F854
:1008800040320C89CB6864F31F434C6900EBC4040D
:10089000C4F844328B69002BD0F804320ED01343D5
:1008A000C0F804320B69002BD0F8143208D013437F
:1008B000C0F81432096A012904D008E09343EFE735
:1008C0009343F5E7D0F81C121143C0F81C12D0F87E
:1008D000001221F00101C0F80012002010BD00003C
:1008E00000640040704770B590F82040012C05D09E
:1008F000022C03D0416A41F4802128E0046809B346
:100900002469A40720D04FF4D874056804EB0114BF
:100910002D5915F00405956005682D591AD0ED087C
:10092000556005682C5904F00204D4604FF4DA7461
:10093000056804EB01142E5906F00F06082E0CD39F
:1009400008250DE0E468DCE7416A41F400114162EA
:10095000012070BD6D0D1560E3E72D5905F00F0501
:10096000156105682D59C5F30725956105682C5952
:10097000240C54614FF4DC72046802EB0112A45899
:100980001C700468A458240A5C700468A458240CE1
:100990009C700468A258120EDA704FF4DE7204687C
:1009A00002EB0112A4581C710468A458240A5C715B
:1009B0000468A458240C9C710468A258120EDA71C1
:1009C000006829B1016941F020010161002070BD7A
:1009D000C16841F02001C160F8E72DE9F05F0546EC
:1009E000006800244669D0F804908768D0F80CB0FD
:1009F000D0F810A0D0F81880F10748D0F90714D02B
:100A000001218160B80703D5284600F0B2FA0CE056
:100A1000780702D54FF4006407E0380702D54FF499
:100A2000805402E0284600F0A3FAF80516D529689C
:100A30004FF480708860B80503D5284600F09BFA13
:100A40000CE0780502D544F4005407E0380502D5DF
:100A500044F4804402E0284600F08CFAF80316D5EE
:100A600029684FF480308860B80303D5284600F029
:100A700084FA0CE0780302D544F4004407E038031C
:100A800002D544F4803402E0284600F075FA3007BD
:100A900007D55FEACB6004D52968102044F40074C0
:100AA000C86070074FF0080707D55FEA0B7004D5E0
:100AB0002868C760284600F0A5F9B00706D5286861
:100AC000C068800702D0284600F09EF9700607D55E
:100AD0005FEACA6004D52968102044F48064086184
:100AE000B00607D55FEA0A7004D528680761284672
:100AF00000F00EFAF00606D528680069800702D0DB
:100B0000284600F006FAB00308D55FEAC96005D5AB
:100B1000296810204860284600F0FCF9F00307D54A
:100B20005FEA097004D528684760284600F026FA75
:100B3000300446D55FEA497040D5F00504D55FEA38
:100B4000C87001D044F00104B00504D55FEA887094
:100B500001D544F00204700504D55FEA487001D560
:100B600044F00404300529D518F0700F26D008F0A1
:100B70007000402815D006DC102809D020280AD0A3
:100B8000302816D10AE050280ED0602811D10EE08E
:100B900044F008040DE044F010040AE044F020049E
:100BA00007E044F0400404E044F0800401E044F431
:100BB00080742868816921F07001816129680420AE
:100BC0004860002C05D0686A204368622846FFF719
:100BD00089FEBDE8F09F70B5040003D094F82000B2
:100BE00010B104E0012070BD204600F081F82068BB
:100BF000016841F00101016000F018FD054605267D
:100C000004E000F013FD401B0A2811D8206840685A
:100C1000C007F6D02068016821F00201016000F0F1
:100C200005FD05460BE000F001FD401B0A2806D932
:100C3000606A40F40030606284F82060D2E7206887
:100C400040688007EFD4207E0128206801683DD0ED
:100C500021F080010160607E01282068016838D0A1
:100C600021F040010160A07E01282068016833D096
:100C700021F020010160E07E0128206801682ED06B
:100C800041F010010160207F01282068016829D00F
:100C900021F008010160607F01282068016824D0EC
:100CA00021F004010160D4E902010843D4E90412EF
:100CB000114308436168491E08432168C861002048
:100CC0006062012084F82000002070BD41F08001A6
:100CD000C0E741F04001C5E741F02001CAE721F03B
:100CE0001001CFE741F00801D4E741F00401D9E752
:100CF000F0B585B000213E4A009101910291039127
:100D000003681068394F3B4C022503263A49401CC2
:100D1000BB4232D11060012807D1C86940F0007091
:100D2000C861C86900F000700490886940F008004C
:100D300088618869694600F0080004904FF480706B
:100D40000090204600F082FB4FF40070CDE90005D2
:100D500069460396204600F079FB2848416821F453
:100D6000C04141F0E06141F4804141600022062130
:100D7000142000F0C7FC142033E0214FBB4232D1D5
:100D8000CB6943F08063CB61CB69012803F08063BA
:100D90000493106007D1C86940F00070C861C86949
:100DA00000F000700490886940F00800886188694C
:100DB000694600F0080004904FF4805000902046EF
:100DC00000F044FB4FF40050CDE90005694603965E
:100DD000204600F03BFB00220621402000F092FC60
:100DE000402000F081FC05B0F0BD00000064004030
:100DF00004000020000C01400010024000000140EF
:100E0000006800407047000010B588B004463C4BB5
:100E10006A460021FFF767FD3A49206888422FD1D2
:100E20000098A0F50071013903D13549364801F029
:100E300074FD0098A0F50071023904D132483049A0
:100E4000143001F06AFD0098A0F50071033904D157
:100E50002D482B49283001F060FD0098B0F5017F46
:100E600004D1294826493C3001F057FD0098A0F5EF
:100E70000071053904D124482149503001F04DFD5D
:100E800022492068884220D11D4C0098223C1C4BEE
:100E9000062802D0012803D007E0988820801CE0B3
:100EA0001749A1F11E0002F0F6FA009802280ED0B0
:100EB000062812D0072819D0A0F500710B3904D1EB
:100EC00011480F49643001F028FD08B010BD0C48EE
:100ED00019882A3849BA0180F7E70948197828386B
:100EE00041705978017058886080EEE70449B3F882
:100EF000010026390880891C18780880E5E7000081
:100F0000420000200064004094020020006800407D
:100F1000704770477047000070B5044690F8200095
:100F2000012804D0606A40F40020606218E00220CA
:100F300084F820002068016821F00101016000F0C0
:100F400075FB05460EE000BF00F070FB401B0A2851
:100F500008D9606A40F400306062052084F82000FF
:100F6000012070BD20684068C007EDD1606270BD8F
:100F7000704770477047704770477047704710B5AB
:100F800090F821100022022905D00421816380F805
:100F90002020012010BD01680B6823F00E030B60B8
:100FA00001680B6823F001030B6090F84030C46BBC
:100FB000012101FA03F3636080F8211080F82020FA
:100FC000104610BD2DE9F05F90F821100024022991
:100FD00003D004218163012485E001680A6822F0BE
:100FE0000E020A6001680A6822F001020A603F4EA0
:100FF0003E4FB215DFF8F4C0DFF8F090DFF8ECA058
:10100000DFF8E8B0DFF8E4E00168783F130115028B
:10101000ACF1640CA9F15009AAF13C0AABF1280B20
:10102000AEF1140E4FF48018B14227D9B9420ED058
:10103000614512D049451DD0514518D0594518D0A9
:10104000714501D1424615E0294EB14201D101223C
:1010500010E0274E1436B14201D110220AE0244E8E
:101060002836B14206D0224A3C32914201D11A467A
:1010700000E02A461E49091F0A602BE0B94213D03E
:10108000614517D0494522D051451DD059451DD045
:10109000714501D142461AE0B14202D14FF080724F
:1010A00015E0134EB14201D1012210E0104E14366A
:1010B000B14201D110220AE00D4E2836B14206D0CD
:1010C0000B4A3C32914201D11A4600E02A460749B8
:1010D00080394A60012180F82110002180F8201019
:1010E000416B01B188472046BDE8F09F8000024077
:1010F000080402402DE9F05FC16B0A6801680B68C3
:10110000046C4FF0040808FA04F8844D844E854FAF
:10111000DFF814C2DFF81492DFF814A2DFF814B27B
:10112000DFF814E218EA020F65D05FEA437862D56F
:101130000A68920603D40A6822F004020A60DFF803
:10114000F0814FF48062016808F114081301140261
:10115000414524D9A9420DD0B1420FD0B9421AD08D
:10116000614515D0494515D0514501D1120312E012
:10117000594501D104220EE0714501D140220AE017
:101180006D4D1435A94206D06B4A2832914201D1E7
:101190001A4600E022466749091F0A6029E0A94271
:1011A00013D0B14215D0B94220D061451BD049457A
:1011B0001BD0514502D14FF4800217E0414502D1C6
:1011C0004FF0806212E0594501D104220EE07145D2
:1011D00001D140220AE0584D1435A94206D0564AA2
:1011E0002832914201D11A4600E022464B49083983
:1011F0004A60C16A71E04FF0020808FA04F818EA80
:10120000020F70D05FEA83786DD50A68920606D423
:101210000A6822F00A020A60012180F82110DFF832
:1012200010814FF40072016808F1140813011402D0
:10123000414524D9A9420DD0B1420FD0B9421AD0AC
:10124000614515D0494515D0514501D1120312E031
:10125000594501D102220EE0714501D120220AE058
:10126000354D1435A94206D0334A2832914201D176
:101270001A4600E022462F49091F0A6029E0A942C8
:1012800013D0B14215D0B94220D061451BD0494599
:101290001BD0514502D14FF4001217E0414502D155
:1012A0004FF0007212E0594501D102220EE0714563
:1012B00001D120220AE0204D1435A94206D01E4A51
:1012C0002832914201D11A4600E0224613490839DA
:1012D0004A60002180F82010816A00291CD0BDE8F6
:1012E000F05F0847FFE70825A540154214D01A070C
:1012F00012D50A6822F00E020A6090F84020C36BF3
:10130000012101FA02F25A60816380F82110002164
:1013100080F82010016BE0E7BDE8F09F0800024074
:101320001C000240300002404400024058000240CD
:101330006C000240080402401C04024030B560B159
:101340001A4B026814219A4209D2194B1344B3FB79
:10135000F1F18900016417490AE0012030BD134B07
:101360005B421344B3FBF1F1890001640F49083972
:10137000C163022180F82110136843F6F0718B439A
:10138000F0E901142143D0E902452C4321430469CB
:101390002143446921438469214319431160002199
:1013A0004163012242770177084630BD08040240BC
:1013B000F8FFFDBF0000024070B5044690F8200021
:1013C000002501280CD0012084F8200094F8216029
:1013D0000020012E06D084F820000225284670BD8A
:1013E000022070BD022684F82160A0632068066890
:1013F00026F0010606602046FFF766F9E06A00283D
:101400002068016802D041F00E0106E021F00401DD
:1014100001602068016841F00A01016020680168EC
:1014200041F001010160D9E770B5044600F0FEF813
:101430000546601C02D004480078044400F0F6F829
:10144000401BA042FAD370BD080000202DE9F84FE0
:10145000DFF8B8910024A9F1040B23460F2709F106
:10146000040AABF1040EC9E00125A5402A40AA42B6
:101470007DD1674ED1F804C0ACEB0608B44532D03C
:1014800014DCBCF1030F3AD009DCBCF1000F2AD008
:10149000BCF1010F1CD0BCF1020F31D11DE0BCF139
:1014A000110F17D0BCF1120F2AD119E0B8F5881F1F
:1014B00019D006DCB8F5803F15D0B8F5801F1FD1D4
:1014C00011E0B8F5001F0ED0B8F5041F18D10AE0DE
:1014D000CB6815E0CB681B1D12E0CB6808330FE02A
:1014E000CB680C330CE08B682BB1012B4FF0080359
:1014F00003D0456104E0042302E0056100E000231D
:10150000FF2A01D8064601E000F104064FEA8405EF
:1015100001D9A5F12005D6F8008007FA05FC28EAD4
:101520000C0803FA05F548EA0508C6F800804D687E
:10153000ED0062D5374DAE6946F00106AE61AD698A
:1015400024F0030605F001050095334D06EB050C6C
:10155000DCF80850A607360F07FA06F825EA080552
:10156000DFF8B880404503D14FF0000817E044E0B1
:10157000DFF8AC80404502D14FF001080FE0DFF802
:10158000A480404502D14FF0020808E0DFF89880BF
:10159000404502D14FF0030801E04FF0040808FA7B
:1015A00006F848EA0508CCF808804D68D9F80060CC
:1015B000ED024D4601D5164300E096432E604D687E
:1015C000DAF80060AD02554601D5164300E09643B7
:1015D0002E604D68DBF80060AD035D4601D5164313
:1015E00000E096432E604D68DEF80060ED0375461E
:1015F00001D5164300E096432E60641C0D682A4610
:10160000E5407FF431AFBDE8F88F000008040140E9
:1016100000001110001002400000014000080140CD
:10162000000C014000100140001401400148806896
:1016300070470000080000200248816802781144C9
:101640008160704708000020074810B5016841F02C
:1016500010010160032000F075F80F2000F006F87B
:1016600000F024F8002010BD0020024070B50D4DA0
:1016700004464FF47A712878B1FBF0F00A49096802
:10168000B1FBF0F000F05EFB48B9102C07D200224D
:101690002146501E00F036F800206C6070BD01201D
:1016A00070BD000008000020140000200C4808B5A0
:1016B000816941F001018161816901F001010091BD
:1016C000C16941F08051C161C06900F08050009053
:1016D0000448416821F0E06141F00071416008BDBB
:1016E0000010024000000140002809DB00F01F024A
:1016F000012191404009800000F1E020C0F8001174
:1017000070470000F0B40E4B1B680C46C3F3022375
:10171000C3F10705042D00D90425191D072901D29D
:10172000002300E0DB1E012606FA05F1491E2140D8
:1017300099409E40761E16403143F0BC01F0C9BE70
:101740000CED00E0064900F0070208684FF6FF03C1
:10175000184040EA0220034A104308607047000026
:101760000CED00E00000FA052DE9F0470F460500FA
:1017700061D0434E306800F00700B84209D23068AB
:1017800020F0070038433060306800F00700B842AE
:1017900051D128683B4C810712D5400703D56068BA
:1017A00040F4E06060602878000703D5606840F48A
:1017B000605060606068A96820F0F00008436060D5
:1017C0002878C00728D06868012810D0216802282E
:1017D00010D0890700292EDA616821F00301014346
:1017E0006160FFF723FF804641F288390DE02168F0
:1017F0008903EFE78901EDE7FFF718FFA0EB080188
:10180000494502D90320BDE8F0876068696800F0A7
:101810000C00B0EB810FEFD1306800F00700B84248
:101820000BD9306820F0070038433060306800F092
:101830000700B84201D00120E5E72878400705D528
:101840006068E96820F4E060084360602878000779
:1018500006D56068296920F4605040EAC1006060E4
:1018600000F038F86168084AC1F30311515CC840C0
:101870000649086006480068FFF7F8FE0020C2E746
:1018800000200240001002407C6600081400002086
:101890000C0000200448054900684968044AC1F367
:1018A0000221515CC8407047140000200010024023
:1018B0008C6600080448054900684968044AC1F379
:1018C000C221515CC8407047140000200010024043
:1018D0008C6600082DE9F0411D494A681D4802F058
:1018E0000C03042B2ED0082B2CD11B48C2F38343AE
:1018F000C45CD00328D5C86A174A00F00F000E3226
:10190000105CCA6AD20316D5CA6AC96AC2F3031246
:10191000C1F30321521C891CA2FB0023A1FB041567
:101920000C4F0026A1FB070C05FB07C501FB065168
:10193000FEF77CFC03E007496143B1FBF0F00D2C9E
:1019400000D14008BDE8F08104486043FAE7000098
:101950000010024000127A005E66000800093D0097
:101960002DE9F84F040070D02078F14DC00749D020
:101970006868C0F38100012807D06868C0F381005F
:10198000022809D16868C00306D52868800339D5C4
:10199000A0680028E7D035E0A068B0F5803F0BD004
:1019A00010B1B0F5A02F11D0286820F48030286045
:1019B000286820F4802002E0286840F48030286005
:1019C000A06890B1FFF732FE06460AE0286840F4AE
:1019D00080202860F0E700BFFFF728FE801B642806
:1019E00076D828688003F7D50CE0FFF71FFE06467F
:1019F00005E000BFFFF71AFE801B6428F0D82868B6
:101A00008003F7D42078CB4E80074FF001094FF0C8
:101A100000073AD5686810F00C0F07D06868C0F36B
:101A20008100022809D16868C00306D428688007AD
:101A300015D56069012808D111E06069B8B1C6F810
:101A40000090FFF7F3FD804606E042E1FFF7EEFD70
:101A5000A0EB08000228C3D828688007F6D52868BC
:101A6000A16920F0F80040EAC10028600DE037606D
:101A7000FFF7DCFD804605E0FFF7D8FDA0EB08008E
:101A80000228ADD828688007F6D4207800072ED524
:101A9000A948E169E9B1C0F80090FFF7C7FD8046A9
:101AA00006E000BFFFF7C2FDA0EB0800022897D8B0
:101AB000686A8007F6D5A1484FF4FA510068B0FB78
:101AC000F1F0009000BF0098411E0091FAD20EE0A4
:101AD000B0E00760FFF7AAFD804605E0FFF7A6FD2E
:101AE000A0EB0800022889D8686A8007F6D420781D
:101AF000400763D5E8694FF00008C00009D4E869E1
:101B000040F08050E861E8694FF0010800F0805033
:101B100000908B480168C90512D40168834641F4DE
:101B200080710160FFF782FD824605E0FFF77EFDD0
:101B3000A0EB0A0064287DD8DBF80000C005F5D5CD
:101B4000206901280AD008B1052813D0286A20F09E
:101B500001002862286A20F0040002E0286A40F0B0
:101B600001002862206941F2883B98B1FFF75EFDD1
:101B700082460BE0286A40F004002862EEE700BFCE
:101B8000FFF754FDA0EB0A01594553D8286A800796
:101B9000F6D50CE0FFF74AFD824605E0FFF746FD6B
:101BA000A0EB0A01594545D8286A8007F6D4B8F158
:101BB000000F03D0E86920F08050E861E06AD0B3FC
:101BC0006968C90307D56968C1F38101022902D197
:101BD000E96AC9037DD4022808D0E86A20F480307D
:101BE000E862B766FFF722FD80463BE02868C00048
:101BF00005D5E86A616B00F0F000884269D1B766EC
:101C0000FFF714FD804605E0FFF710FDA0EB08008C
:101C1000642874D828680001F6D4E86A616B20F063
:101C2000F0000843E862E86A216B20F47060084322
:101C3000E86201E063E018E0C6F86890FFF7F6FCA0
:101C4000804605E0FFF7F2FCA0EB0800642856D8B8
:101C500028680001F6D508E0FFF7E8FCA0EB0800D3
:101C600064284CD828680001F6D4206A90B36968CB
:101C7000C1F38101022949D00228376603D0FFF75A
:101C8000D5FC04463EE0FFF7D1FC074605E000BF67
:101C9000FFF7CCFCC01B022831D828688001F7D49C
:101CA000606AB0F5803F09D1E86A61680843E8627C
:101CB000E86AE16820F00F000843E862D4E909010E
:101CC0000843696821F4741108436860C6F860909D
:101CD00001E028E029E0FFF7A9FC044605E000BF89
:101CE000FFF7A4FC001B022809D828688001F7D55B
:101CF0001BE000BFFFF79AFC001B022802D903205B
:101D0000BDE8F88F28688001F4D40EE00128F7D0F0
:101D10006868626A00F48031914204D1A16A00F4DB
:101D20007010884201D00120EAE70020E8E70000B7
:101D30000010024000004242800442421400002091
:101D40000070004010B5401EB0F1807F01D301202B
:101D500010BD4FF0E02460610F21601701F0B9FB66
:101D60000020A06107202061002010BD704770474F
:101D700070B590F83C20012A29D0012480F83C401D
:101D8000022280F83D2003685A689D6822F07006A0
:101D90000A6832435A600F4B02689A420BD0B2F184
:101DA000804F08D00C4B9A4205D00C4B9A4202D07F
:101DB0000B4B9A4204D1496825F080031943916086
:101DC00080F83D40002180F83C10084670BD02209C
:101DD00070BD0000002C01400004004000080040DD
:101DE000000C004010B5040003D094F83D0010B181
:101DF00007E0012010BD002084F83C00204600F0E0
:101E00001FF8022084F83D00211D206800F0ECFE40
:101E1000012084F8460084F83E0084F83F0084F8EE
:101E2000400084F8410084F8420084F8430084F8BC
:101E3000440084F8450084F83D00002010BD0000F7
:101E400008B50068B0F1804F12D10A48C16941F06D
:101E50000101C161C069002200F00100009005216C
:101E60001C20FFF74FFCBDE808401C20FFF73CBCDE
:101E700008BD00000010024090F83D10012901D07B
:101E800001207047022180F83D100168CA6842F0C5
:101E90000102CA6000680D4988420BD0B0F1804F42
:101EA00008D00B49884205D00A49884202D00A4925
:101EB000884204D1816801F00701062903D0016836
:101EC00041F001010160002070470000002C01403A
:101ED0000004004000080040000C004070B50446BB
:101EE00090F83C000025012817D0012684F83C60BA
:101EF000022084F83D002068826822F0770222F4F4
:101F00007F4282600868502838D00DDC20284FD0EE
:101F100005DC90B3102811D14AE0022070BD3028B2
:101F200046D040280AD13BE060282FD070280DD041
:101F3000B0F5805F03D0B0F5005F12D0012584F8C2
:101F40003D60002084F83C00284670BDCB68D1E994
:101F50000121206800F086FE2068816841F0770149
:101F600009E0CB68D1E90121206800F07BFE206800
:101F7000816841F480418160E1E719E0CA684968FD
:101F8000206800F081FE5021206806E0CA68496898
:101F9000206800F08AFE6021206800F06DFECEE728
:101FA000CA684968206800F06FFE40212068F4E7A5
:101FB000226801461046F0E7704770B50446006895
:101FC00001694FF00005C943890715D4C168C943A9
:101FD000890711D4E91E01610120207720688069FA
:101FE0008007204602D0FFF7E7FF04E000F098F8F2
:101FF000204600F096F8257720680169C943490713
:1020000017D4C168C943490713D46FF004010161B3
:10201000022020772068806910F4407F204602D09B
:10202000FFF7CAFF04E000F07BF8204600F079F8E3
:10203000257720680169C943090716D4C168C943D7
:10204000090712D46FF0080101610420207720688D
:10205000C0698007204602D0FFF7AEFF04E000F021
:102060005FF8204600F05DF8257720680169C943D4
:10207000C90617D4C168C943C90613D46FF010014B
:102080000161082020772068C06910F4407F204655
:1020900002D0FFF791FF04E000F042F8204600F084
:1020A00040F8257720680169C943C90708D1C1688C
:1020B000C943C90704D1891E0161204600F032F8E6
:1020C00020680169C943090609D4C168C9430906E2
:1020D00005D46FF0800101612046FFF747FE2068BC
:1020E0000169C943490609D4C168C943490605D4F1
:1020F0006FF040010161204600F07EF82068016920
:10210000C94389060BD4C168C943890607D46FF057
:10211000200101612046BDE87040FFF728BE70BD78
:102120007047704770B52E49884257D12D4D2E4CBF
:102130002888401C2880C00722D12C4801F068FD67
:102140002A4801F08FFF294801F0F4FC274801F0EC
:1021500021FE607802280DD02448B0F96830B0F92B
:102160004C20B0F93010B0F91400FEF7F1F96078A6
:10217000022805D100231A4619461846FEF7E8F949
:102180001B4803F097F81A4803F034F860780228E7
:1021900007D01748B0F91000FEF7FEF96078022862
:1021A00002D10020FEF7F8F9124802F047FA114870
:1021B00002F074F96078022807D00E48B0F91800D0
:1021C000FEF706FA6078022802D10020FEF700FA36
:1021D0002888B0F57A7F01D90020288070BD0000E2
:1021E000EC000020000000201A000020240B00203A
:1021F0000C0F0020980D00207047704710B5044662
:102200000068406994F84110C0F3C010212911D131
:1022100080B12068143050E8001F21F0800140E8B0
:102220000012002AF5D1A06B08B1FEF7A8FE2046E7
:1022300000F0F3FD2068406994F84210C0F380106C
:10224000222911D180B12068143050E8001F21F0FC
:10225000400140E80012002AF5D1E06B08B1FEF71A
:102260008EFE204600F0B2FD002010BD7047000039
:10227000F8B5016804460868CA684B6910F00F0F8A
:102280004FF000055AD003F0010602F4907737436F
:1022900065D0C10705D0D10503D5616C41F00101BE
:1022A0006164410705D5D90703D0616C41F0020193
:1022B0006164810705D5D90703D0616C41F0040141
:1022C0006164010707D502F02001314303D0616C3E
:1022D00041F008016164616C00293BD0800604D59F
:1022E000900602D5204600F0A6FD20684069616C8A
:1022F000C0F3801001F00801014320462BD000F00C
:1023000065FD20684069400621D52068143050E8FA
:10231000001F21F0400140E80012002AF5D1E06BD7
:10232000A8B16D494163E06BFEF74CFE002811D067
:10233000E06B416B01B0BDE8F040084783060ED565
:1023400093060CD52046BDE8F84000F074BD204649
:10235000FFF78CFFF8BDFFF789FF6564F8BD266BBA
:102360002023012E7CD1C6067AD5D60678D50868FA
:102370004868009048694FF00206400640D5E16B7E
:10238000086840680004000CE8D0A28D8242E5D9BC
:10239000E085886920282DD020680C3050E8001F87
:1023A00021F4807140E80012002AF5D1216814312F
:1023B00051E8000F20F0010041E80002002AF5D1A9
:1023C0002068143050E8001F21F0400140E800125E
:1023D000002AF5D184F84230256320680C3050E89B
:1023E000001F21F0100140E80012002AF5D1E06B37
:1023F000FEF7C5FD6663A08DE18D401A81B22AE02B
:10240000A08DE18D401A81B2E08D0028A6D0002970
:10241000A4D022680C3252E8000F20F4907042E8F9
:102420000007002FF5D12068143050E8002F22F06B
:10243000010240E80027002FF5D184F842302563DF
:1024400020680C3050E8002F22F0100240E80023F2
:10245000002BF5D166632046FFF7CFFEF8BDFFE7FE
:1024600005062BD5150629D594F841002128F5D16C
:10247000A068B0F5805F01D12069B0B1206A411C2D
:102480002162216800784860E08C401E0004000C46
:10249000E084E3D12068C16821F08001C160206838
:1024A000C16841F04001C160D8E7206A0088C0F3EC
:1024B00008004860206A801C2062E5E74006CDD510
:1024C0005006CBD5CA68204622F04002CA6084F884
:1024D000413000F02EF9C1E7CF2C000870B50400A0
:1024E00004D094F84100002510B106E0012070BD31
:1024F00084F84050204600F023F8242084F841005E
:102500002068C16821F40051C160204600F0F4FC4D
:102510002068016921F4904101612068416921F03E
:102520002A0141612068C16841F40051C1606564BD
:10253000202084F8410084F842006563002070BDCB
:10254000F0B585B0002400940194029403940646EB
:10255000424F0368424802210322424DBB4259D1F7
:10256000836943F480438361836903F48043049364
:10257000836943F0080383618069039200F00800D7
:1025800004904020CDE9000169462846FEF75EFF31
:102590008027CDE90074694628460294FEF756FF6D
:1025A0003148416841F0E06141F004014160304D43
:1025B0002E48C5E90004C5E902472C61B8016C61E9
:1025C000C5E906402846FEF7B9FE08B1FEF792F8C5
:1025D000F5636E62264D25484435143801C5102038
:1025E00091C5000245F810496C61C5E906402048D4
:1025F0004430FEF7A3FE08B1FEF77CF8B563002275
:10260000052125206E62FFF77DF82520FFF76CF885
:1026100005B0F0BD174EB342FAD1C36943F480232D
:10262000C361C36903F480230493836943F00803FF
:1026300083618069039200F0080004903015CDE9B1
:10264000000169462846FEF701FFF014CDE90004B9
:10265000694628460294FEF7F9FED9E700380140A2
:1026600000100240000C01400000014058000240F0
:10267000C40100200048004090F84230202B01D0D7
:102680000220704721B11AB10023036300F090BC0F
:1026900001207047704770472DE9F843044690F8D1
:1026A00041001F4616460D46202802D00220BDE8F4
:1026B000F8837DB176B100206064212084F8410068
:1026C000FEF7B4FFA6848046E684A068B0F5805F7C
:1026D00002D003E00120EAE7206910B12E46002570
:1026E0000EE000260CE08021204600F0A9FCA0B9F5
:1026F000AEB116F8010B21684860E08C401EE08402
:10270000E08C43464FF0000200970028EBD14FF0D9
:102710004001204600F094FC30B10320C7E735F8B3
:10272000020BC0F30800E6E7202084F841000020F7
:10273000BDE77047FEE70000104810B50E49016084
:102740000221416000214FF450228160C0E9031250
:102750004FF4001242610176012242768176C17601
:1027600001774177FEF737FA002803D0BDE8104023
:10277000FDF7C0BF10BD0000006400409C000020B9
:10278000104810B50E4901600221416000214FF44C
:1027900050228160C0E903124FF4001242610176B9
:1027A000012242768176C17601774177FEF713FAEE
:1027B000002803D0BDE81040FDF79CBF10BD00000D
:1027C00000680040C40000200D4808B5416941F090
:1027D000010141614069002200F0010000900521E3
:1027E0000E20FEF78FFF0E20FEF77EFF0022052150
:1027F0000F20FEF787FFBDE808400F20FEF774BFEB
:10280000001002400D4808B5816941F02001816146
:10281000816901F020010091816941F00801816125
:10282000816901F008010091816941F00401816131
:10283000806900F00400009008BD00000010024014
:1028400010B586B0002417480094019402940394B4
:1028500004944FF08041059401604721C0E90114C0
:1028600040F2E731C0E9031480218161FFF7BAFA31
:1028700008B1FDF73FFF4FF48050009069460948CA
:10288000FFF72CFB08B1FDF735FF049404A90548B8
:102890000594FFF76DFA002801D0FDF72BFF06B075
:1028A00010BD0000EC0000200C4810B50A49016082
:1028B0004FF4E1314160002181600C22C160C0E928
:1028C00004128161C161FFF709FE002803D0BDE851
:1028D0001040FDF70FBF10BD00380140340100204B
:1028E0000C4810B50A4901604FF4E1314160002104
:1028F00081600C22C160C0E904128161C161FFF7EF
:10290000EDFD002803D0BDE81040FDF7F3BE10BD7B
:10291000004800407C010020FEE710B503880381D9
:102920000A8852BA02804C88D31A64BA44808C88D0
:10293000B3F5805F64BA848089798171C16801DDF3
:10294000491E03E013F5805F01DA491CC16002EB08
:102950004131016110BDFEE72DE9F041040059D07D
:10296000206C6064E66B2664C4E90621104603F01F
:1029700063FD0546E0632946606803F055FC60622C
:102980002946A06803F050FCA16A03F09BFA0746B1
:10299000A062606BA063206B60633146284603F041
:1029A0004BFD01462063E06803F03EFCE0623846E0
:1029B000616903F005FD606908D380F00040A16AF9
:1029C00003F0FEFC03D2606980F00040A062D4E90D
:1029D000090103F077FAE16A03F074FA20622169D1
:1029E00003F0EEFC206908D380F00040216A03F078
:1029F000E7FC03D2206980F000402062A16C206ACD
:102A000003F0DEFB09D8A06C216A80F0004003F0DF
:102A1000D7FB02D80020BDE8F081206AFBE770B543
:102A20001D46040063D0206C6064E06B2064C4E940
:102A30000621104603F000FD0646E063314660685B
:102A400003F0F2FB606285F00040314603F0B8FB12
:102A50000CD22946E06B03F0B3FB07D2E16BA06810
:102A600003F0E2FBA16A03F02DFAA062606BA063A1
:102A7000206B6063D4E90F0103F0DEFC01462063A4
:102A8000E06803F0D1FBE0626169A06A03F098FCA2
:102A9000606908D380F00040A16A03F091FC03D282
:102AA000606980F00040A062D4E9090103F00AFAED
:102AB000E16A03F007FA2062216903F081FC2069D2
:102AC00008D380F00040216A03F07AFC03D2206929
:102AD00080F000402062A16C206A03F071FB08D8EE
:102AE000A06C216A80F0004003F06AFB01D800204E
:102AF00070BD206A70BD30B50028039C16D0002937
:102B000014D00D6845604D688560896800F10C053A
:102B100085E80E0000218163416301630162C162A7
:102B200081624162416401648464C16330BD704765
:102B30000A4810B50068C16841F01001C1604FF447
:102B40008064224606490548FFF796FD224605495E
:102B5000BDE81040A1F1180001F0CEBB3401002007
:102B60000C030020240700207047FEF765BD00001D
:102B700070B594B038216846FDF736FC14210EA8D4
:102B8000FDF732FC012500242804CDE902040226C9
:102B9000CDE908600095059501944FF4E010CDE96A
:102BA0000A046846FEF7DCFE08B172B6FEE70F20A5
:102BB000CDE90E064FF48060CDE9104002210EA849
:102BC0001294FEF7D1FD08B172B6FEE70148056721
:102BD00014B070BD00004242704700000148FFF78A
:102BE000ECB90000EC000020F0B50268194B1A4C5B
:102BF0001A4D1B4E4FF08047984207D0B84205D07F
:102C0000A04203D0A84201D0B04204D122F0700CFF
:102C10004A6842EA0C02984207D0B84205D0A04266
:102C200003D0A84201D0B04203D122F44074CA6854
:102C300022434C6922F08002224302608A68C26209
:102C40000A688262984201D10969016301214161E8
:102C5000F0BD0000002C01400004004000080040CE
:102C6000000C004010B5846842EA032224F47F443B
:102C70000A432243826010BD826822F070020A4338
:102C800042F007018160704710B5036A046A24F0BE
:102C900001040462846924F0F00444EA021423F07D
:102CA0000A020A438461026210BD10B5036A046A15
:102CB00024F010040462846923F0A00324F4704417
:102CC00044EA023243EA01118261016210BD10B58B
:102CD000406A0021C185C184FFF7C8FA10BD70B5F4
:102CE000446A2068406994F84110C0F3C010002580
:102CF000212904D118B1E584204600F08EF820681F
:102D0000406994F84210C0F38010222904D118B110
:102D1000E585204600F05AF8606C40F010006064D1
:102D20002046FFF7A3FA70BD10B50146406A096856
:102D300009684FF0000289062ED4C28501680C3163
:102D400051E8003F23F4807341E80034002CF5D1B2
:102D50000168143151E8003F23F0010341E80034D9
:102D6000002CF5D10168143151E8003F23F04003F5
:102D700041E80034002CF5D1202180F84210016B8D
:102D8000012909D101680C3151E8003F23F01003FB
:102D900041E80034002CF5D14263016B012902D0D7
:102DA000FFF778FC10BD818DFFF727FA10BD10B535
:102DB000406A01214163016B012902D0FFF76BFCDE
:102DC00010BD818D4908FFF718FA10BD01680C315C
:102DD00051E8002F22F4907241E80023002BF5D136
:102DE0000168143151E8002F22F0010241E800236C
:102DF000002BF5D1016B012909D101680C3151E893
:102E0000002F22F0100241E80023002BF5D12021F1
:102E100080F8421000210163704701680C3151E8CD
:102E2000002F22F0C00241E80023002BF5D1202121
:102E300080F84110704708B590F84210222901D05F
:102E4000022008BD82684FF480539A4201D1016983
:102E500021B1816A9A421BD04AB10AE00268816AB4
:102E60005268C2F308020A80816A891C08E002697C
:102E700072B10268526802F07F020A70816A491CCE
:102E80008162C18D491E0904090CC18503D01BE074
:102E900002685268F1E70168CA6822F02002CA603D
:102EA0000168CA6822F48072CA6001684A6922F027
:102EB00001024A61202180F8421000214163026B27
:102EC000012A03D0FFF7E6FB002008BD016301687B
:102ED0000C3151E8002F22F0100241E80023002BB2
:102EE000F5D101680A68D20602D50A6849680091DE
:102EF000818DFFF782F9E7E770B504460068016944
:102F0000E26821F44051114301612169A06808433E
:102F1000616908432168CA6841F20C639A4302431D
:102F2000CA6020684169A26921F44071114341617E
:102F30001E492068884202D1FEF7BCFC01E0FEF782
:102F4000A9FC00EBC00101EB001260686421800065
:102F5000B2FBF0F3B3FBF1F36FF018067343B2FB6F
:102F6000F0F5B2FBF0F605EB8305322303EB051514
:102F7000B5FBF1F5B6FBF1F605F0F00505EB06152E
:102F8000B2FBF0F6B2FBF0F0B0FBF1F06FF018021C
:102F9000504306EB800003EB0010B0FBF1F021681A
:102FA00000F00F002844886070BD00000038014028
:102FB00038B581620446828500201346606422226F
:102FC00084F84220E56B1B4AAA62E56B1A4AEA6262
:102FD000E56B1A4A2A63E26B50630A462168E06B8C
:102FE000091DFEF7E9F92068016840680090206932
:102FF00048B120680C3050E8001F41F4807140E86F
:103000000012002AF5D12068143050E8001F41F06A
:10301000010140E80012002AF5D12068143050E880
:10302000001F41F0400140E80012002AF5D10020C5
:1030300038BD0000292D0008AF2D0008DF2C000846
:103040002DE9F041984617460E460446069D27E0B6
:10305000681C25D02DB1FEF7E9FAA0EB0800A842C4
:103060001ED920680C3050E8001F21F4D07140E8D0
:103070000012002AF5D12068143050E8001F21F01A
:10308000010140E80012002AF5D1202084F8410017
:1030900084F84200002084F840000320BDE8F0815D
:1030A0002068006836EA000004D00020B842CFD083
:1030B0000020F3E70120F9E72DE9F04F0DF1240896
:1030C00098E8F01E91F8008000F8018B91F80180DB
:1030D00080F8008089784170817862F3020121F0E4
:1030E000380120318170418863F389114180C178B2
:1030F00064F38501C170B0F8032065F38E12A0F867
:103100000320818866F3CF118180C18867F30901AC
:10311000C180B0F8071069F38C01A0F8071002898C
:103120006AF34F120281B0F80B106BF38C01A0F818
:103130000B1082896CF34F128281BDE8F08F000082
:103140002DE9F047044608A890E8E017087804F84D
:10315000010B4878207088786070A07862F30200D4
:1031600020F038002830A070608863F389106080F8
:10317000E07865F38500E070B4F8030066F38E1024
:10318000A4F80300A08867F3CF10A080E08868F35C
:103190000900E080B4F8071069F38C01A4F8071067
:1031A00020890D496AF34F102081604603F03CF8F6
:1031B00002F0BEFF6189820A60F309016181B4F8FF
:1031C0000B1062F38C01A4F80B10410DA08961F380
:1031D0004F10A081BDE8F08700007A442DE9F0434C
:1031E0000DF11C0898E8F01291F8008000F8018BAE
:1031F00091F8018080F8008089784170817862F3CD
:10320000020121F038018170418863F38911418006
:10321000C17864F38501C170C18865F30901C1807B
:10322000B0F8071066F38C01A0F80710018967F366
:103230004F110181B0F80B1069F38C01A0F80B104D
:1032400082896CF34F128281BDE8F0832DE9F0474B
:1032500091F80080DDE90DA4DDE90A57DDE908C930
:103260000C9E80F8008091F8018080F801808978B8
:103270008170C17862F3020141F03801C170B0F889
:10328000031063F38911A0F8031001796CF3850131
:103290000171828869F38E128280B0F8051065F39F
:1032A000CF11A0F80510B0F8071067F30901A0F8D6
:1032B0000710018966F38C010181B0F80920002113
:1032C0006AF34F12A0F8092005E000BF431814F874
:1032D000012BDA73491CA942F8DBBDE8F087000036
:1032E00070B50546A52016460C460870012D06D07F
:1032F000022D06D0052D06D0072D06D008E0152199
:1033000004E0242102E0512100E06F21A4F8011023
:10331000E0780421401CE0702046FDF775F920712B
:1033200040F20131A4F80510012D06D0022D07D07E
:10333000052D08D0072D09D00CE040F2011107E05F
:103340004FF4817104E040F2031101E04FF4827107
:10335000A4F80710A4F8096006F58076A4F80B60BD
:10336000012D14D0022D1BD0052D23D0072D2BD1DC
:10337000254676212046FDF757F9FF23A5F876006C
:1033800078222146BDE870401048FFF785B92546F0
:103390001C212046FDF748F9FF23A8831E22F0E7F1
:1033A00025462B212046FDF73FF9FF23A5F82B00EA
:1033B0002D22E6E7254658212046FDF735F9FF2363
:1033C000A5F858005A22DCE770BD00003401002047
:1033D00070B50446A52020703320A4F80100E078E1
:1033E0000D46401CE07004212046FDF70DF92071C8
:1033F00040F20130A4F805004FF48870A4F80700EB
:10340000A4F8095005F58075A4F80B503A21204620
:10341000FDF70AF960872146BDE87040FF233C2292
:103420000148FFF739B900003401002038B51548CC
:1034300000680168C1F30011F9B101680025416815
:103440000091016840680F48FEF7D8FE0E480068FA
:1034500040680E4C404220700120607022780C4978
:1034600001F5806000F053FF01F06AFA65704FF4D7
:10347000806207490348FFF7FFF8BDE8384001487C
:10348000FEF7F6BE34010020C40100204A000020EF
:103490000C030020FEE70A8852BA02804A8852BA1A
:1034A0004280898849BA81807047490050EAC1202A
:1034B00018BF04204A0D18BF40F0010040F2FF720F
:1034C000B2EB515F08BF40F00200012808BF0520A1
:1034D00070470907090E002804DB00F1E02080F89E
:1034E0000014704700F00F0000F1E02080F8141D78
:1034F000704700002DE9F74F144694B00021C4E94D
:1035000002111599079121F00045C9498D4206DC49
:103510001599C4E9000117B00020BDE8F08FC54936
:10352000DFF814A3A9423CDD0799C44E0029C44F1B
:10353000C44A1599534619DD02F0AEFB554506D035
:10354000C14AC24B02F0A8FBC4E900010AE04FF0F7
:10355000D352BE4B02F0A0FB32463B4602F09CFB2E
:10356000C4E9000117B00120BDE8F08F01F042FF6F
:10357000554506D0B44AB54B01F03CFFC4E9000103
:103580000AE04FF0D352B14B01F034FF32463B46D4
:1035900001F030FFC4E9000117B04FF0FF30BDE883
:1035A000F08FAB49A942159978DB21F000418346A1
:1035B0008846A84AA84B02F07FF90022A74B01F0E9
:1035C00019FF02F01FF9099002F04BF906460F4669
:1035D0009C4A534602F070F943465A4602F06AFA92
:1035E00080468A46984A994B3046394602F064F93B
:1035F0002A0D01250B924246534602F05BFA032D39
:10360000C4E9000139D00B98C1F30A51401A05EB07
:1036100045111139814230DA9148C346784400EBB4
:103620000510CDF80CA00C90D0E9002330463946A7
:1036300002F042F902460B4604910690584603995F
:1036400002F02AFB80468A4602460B4658460399FA
:1036500002F022FB049B069A02F01EFB83460C98A4
:1036600003913946D0E90223304602F025F95A4643
:10367000039B02F011FB6D1CBDE707980028A2BF59
:10368000099817B0BDE8F08F616881F00041616072
:10369000099817B04042BDE8F08FFFE784461598BF
:1036A000C1F31301C0F30A50A0F2F5304FEA6018DD
:1036B00000F01F06C6F1200013900020069007902E
:1036C00041F4801E05206D4676B1664A08EB000184
:1036D0007A4452F8213002EB8101B3404A681399D1
:1036E00022FA01F1194305E05F4908EB0002794431
:1036F00051F82210A1FB0E27A1FB0C131A449A4289
:1037000034BF0123002303EB070A05EB8003D3E951
:1037100001B70F448F4234BF0121002193448B44F1
:1037200011B1934502D903E0934501D2012100E094
:103730000021C3E901B7514445F82010011EA0F152
:103740000100C1DC0298059F00F10050800F12902B
:103750000298DDE90356800002F083F8834628468C
:103760000D9102F095F86FF01D0202F00CFFCDE90B
:103770000E01304602F08CF86FF03D0202F003FFBC
:1037800080468A46384602F083F86FF05D0202F008
:10379000FAFE074642465346119101F02BFEDDE941
:1037A0000E2301F027FE5A460D9B01F023FE002553
:1037B0000E465A4628460D9B02F06EFADDE90E23AE
:1037C00002F06AFA4246534602F066FA3A46119B04
:1037D00002F070F9DFF898A0244A534602F06CF822
:1037E00007468846234A244B3146284602F064F8AF
:1037F0003A46434601F0FEFD074688464FF0A84290
:1038000053463146284602F057F83A46434601F0FF
:10381000F1FD159A12F0004F04D0129A81F0004188
:1038200052421292C4E90001129817B0BDE8F08F1D
:10383000FB21E93F7CD90240FB21F93F7370032E45
:103840008A19A33B000040543163621A61B4D03D31
:10385000FB21394183C8C96D305FE43F0000E03F80
:10386000103700008C3600006E360000182D4454CE
:10387000FB21F93D3326A611460B113C2DE9FF4DE6
:1038800021F0004807460C46B8F1795F08DA01F0EC
:10389000B9FF002801BF0020324904B0BDE8F08D17
:1038A0003A4623461046194602F006F805460246F7
:1038B0002D480E460B460621784400F05DF82A4656
:1038C000334601F0F9FFDDE9022382468B46384694
:1038D000214601F0F1FF04460F4652465B4628465A
:1038E000314601F0E9FF22463B4602F0D5F9074692
:1038F0008A464FF0FF322846314602F044FE1B4A0A
:1039000090450ADA3A46534602F0C6F904B000225E
:10391000BDE8F04D134B02F0CDB8154A4245A8BFA3
:10392000A8F500154FF00004B8BF124D22462B46F3
:1039300002F0B2F90646884622462B460020094985
:1039400002F0AAF904460D463A465346304641462F
:1039500002F0A2F904B022462B46BDE8F04D02F079
:10396000A9B800000000F03F443400003333D33FD7
:103970000000E93F0000D23F2DE9F0414F1E00EB6F
:10398000C7010446D1E9000115461E4637F006027C
:103990000DD02A46334601F08FFF7F1E04EBC7038C
:1039A000D3E9002301F026FD37F00602F1D1022F02
:1039B00025D0042F13D0062F18BFBDE8F0812A466A
:1039C000334601F079FFD4E90A2301F013FD2A46BA
:1039D000334601F071FFD4E9082301F00BFD2A46BC
:1039E000334601F069FFD4E9062301F003FD2A46BE
:1039F000334601F061FFD4E9042301F0FBFC2A46C1
:103A0000334601F059FFD4E9022301F0F3FC2A46C2
:103A1000334601F051FFD4E90023BDE8F04101F045
:103A2000E9BC00002DE9FF4D054621F0004084B0BF
:103A30000C46B0F1795F0BDA2846FFF736FD042813
:103A400008BF00F06FF8284608B02146BDE8F08DA9
:103A50002A460B46104601F02FFF06460F462A461F
:103A6000234601F029FF804626488A4632463B46D7
:103A700005217844FFF780FF83461098029160B3D8
:103A8000214A224B4046514601F016FFCDE9000184
:103A90005A4640465146029B01F00EFF8246884638
:103AA000DDE906014FF0FF3202F06DFD524643465C
:103AB00002F0F2F832463B4601F0FEFEDDE9062355
:103AC00002F0EAF8DDE9002302F0E6F808B02A4641
:103AD0002346BDE8F04D01F0EDBF0B465A46304697
:103AE000394601F0E9FE084A084B01F083FC4246E2
:103AF000534601F0E1FE08B02A462346BDE8F04DEA
:103B000001F078BC82330000495555555555C5BF65
:103B1000012202F038BD002213461046114601F082
:103B200019BD0000024A0020110702F02CBD000060
:103B300001FDFFFF2DE9FF41002604460096019696
:103B400002963546039600F04FFC20680078032863
:103B500008D100F0B1F8D4E993016B46D4F85C22A7
:103B600000F0F4FA20680078022807D100F094FAF7
:103B700004F515706B4607C800F018FB2068007844
:103B8000012805D100226B461146104600F00EFBBD
:103B90004FEA0D08C5EBC50004EB800758F8251067
:103BA0003046396102F00CFB00D23E696D1CEDB26B
:103BB000042DEFD34FF08140864212DD314602F0F2
:103BC000F5F906465FF00005C5EBC50004EB80077C
:103BD0003146386902F028FB6D1CEDB23861042DC6
:103BE000F2D30025C5EBC50004EB8000D0E9031239
:103BF00005EB450000EB051004EB80007830FEF784
:103C0000ABFE6D1CEDB2042DECD3BDE8FF810000CE
:103C10002DE9F047040048D0254F0025C5EBC5002D
:103C200004EB8006B068B0F9020002F09DFA394654
:103C300002F0FAFA6D1CEDB2F060042DEED3E668E6
:103C4000A56A3146284602F0F7FBD4F84480414685
:103C500002F038F9276E394602F0EEFB6FF00109E9
:103C6000494602F0BEFCC4F8400286F000402946F6
:103C700002F0E2FB0546414602F024F9394602F023
:103C800021F9494602F0ADFCC4F8440228464146F9
:103C900002F0D2FB394602F0CFFB494602F0A1FC0C
:103CA000044902F083F9C4F84802BDE8F087000037
:103CB0000A01DA39CDCC4C3E074810B5816A074A73
:103CC0000748FEF749FE0748D0F8C81181F00041C7
:103CD000C0F85C1210BD0000980D00209A99794040
:103CE000CC0C0020240B00202DE9F843044600F002
:103CF000CDFB606000F074FB0025204FDFF8808072
:103D00002E462060284600F093FBC5EBC50104EB6E
:103D100081013B46886005EB450000EB051004EB94
:103D200080004246174978300096FEF7E4FE6D1C8D
:103D3000EDB2042DE6D313494FF080450023124A1B
:103D40000C3104F5D4700095FEF7D5FE0D49002323
:103D50000E4A183104F5FA700096FEF7CCFE684260
:103D6000C4E998504FF07F50C4F868020848C4F87E
:103D70006C022046BDE8F843FFF74ABF0000FA4452
:103D800000007A46946600080000C0400000204110
:103D90000000C0BF2DE9F04F97B004462820ADF8D1
:103DA0004C00002000908F4804908F4806908F4868
:103DB00003908F488F49029013AA081D00F042FB20
:103DC0008C48008802F0E8F901468B4A04F5FA7045
:103DD000FEF7C2FDBDF84C0002F0DEF9D4F8141273
:103DE00002F02AFB834600250DF11C0A05EB450075
:103DF00000EB051004EB8000D0F8980080460146E7
:103E0000069802F011FA414602F00EFA0746C5EB99
:103E1000C50004EB80008068B0F9020002F0A4F94C
:103E200081464E46039902F0FFF9314602F0FCF953
:103E300006464046049902F0F7F9494602F0F4F9C3
:103E4000314602F03FF8394602F03CF8029902F0A0
:103E500039F84AF8250001465646009802F032F833
:103E60006D1CEDB20090042DC0D3594602F0A8FAA3
:103E700073D25846009902F099F8DFF880B1002516
:103E8000B1460DF12C0A059059F82500059902F06C
:103E9000CBF94AF82500074658455AD2C5EBC5006C
:103EA00004EB80008068B0F9020002F05DF906467C
:103EB000049902F0B9F980463046039902F0B4F94A
:103EC000314602F0B1F9394602F0B6FA029901F032
:103ED000F9FF074605EB450000EB051004EB8006F3
:103EE0004FF00101D6F89800B0F5000F06984BDBB3
:103EF00002F077FB01F0BAFFCDE90F10022106981E
:103F000002F06FFB394602F08FF90746414608463A
:103F100002F08AF9394602F08FFA01F0A7FF01F0AA
:103F200043F9074688F00040119101F09FFF3A469F
:103F3000119B01F05FFADDE90F3201F00BFB01F09C
:103F400027FA2F49884202DDC6F8981001E0C6F82A
:103F500098006D1CEDB2042D96D3002505EB4500AD
:103F600000EB051004EB8000D0F8980002F0E0F8B8
:103F7000C5EBC50104EB81016D1CEDB28882042DF7
:103F8000ECD317B0BDE8F08F02F02BFB01F06EFF11
:103F9000CDE90F100221069802F023FB394602F00A
:103FA00043F907464146084602F03EF9394602F019
:103FB00043FA01F05BFF01F0F7F8074688F0004094
:103FC000119101F053FF3A46119B01F065FEDDE9C6
:103FD0000F3201F0BFFA01F0DBF90A498842B6D985
:103FE000B2E700004F020636FC110434C3031C3450
:103FF0008D978240940000200000F04100008080F6
:1040000000007A4600007AC62DE9F0410D460646CA
:10401000002A20D0002E1ED0002D1CD05168B1F9EE
:10402000000000F10A02152A00D20020B1F9024076
:1040300004F10A01152900D2002402F095F807497D
:1040400002F0F2F80746204602F08EF8044902F02A
:10405000EBF837602860BDE8F0810000A69BC43B08
:104060000AD7A3BB1CB5040015D000200090019016
:10407000684601A92246FFF7C7FFD4E9982104F555
:104080001374009800F0C2F82060D4E90721019869
:1040900000F0BCF860601CBD2DE9F84F2A4C29489F
:1040A000C4F85C02D4F84CB2D4F85062D4F8700270
:1040B00004F5137401F0DAFE00F0BAF805460F4675
:1040C000304601F0D3FE06462A463B46009101F0F9
:1040D000F3FB81468A46606A01F0C8FE01F014F8DD
:1040E00007468846584601F0C1FE8B4605463A46CB
:1040F000434601F0E1FB4A46534601F07BF901F0EB
:1041000047F9E060606A01F0B1FE00F0FDFF024691
:104110000B463046009901F0CFFB06460F46606A19
:1041200001F0A4FE00F084F82A465B4601F0C4FBCF
:1041300032463B4601F0B0FD01F02AF9A060BDE82F
:10414000F88F00000000C040240B00202DE9F04152
:104150000F4606461D461449104602F065F804460F
:1041600086F00040394602F067F9214602F064F912
:1041700068603946304602F05FF9214602F05CF98A
:10418000E8603946304601F09DFE214602F054F9C0
:10419000A8603946304602F044F9214602F04CF955
:1041A0002860BDE8F0810000CDCC4C3E2DE9F04107
:1041B0000F4606461D461449104602F035F80446DF
:1041C00086F00040394602F037F9214602F034F912
:1041D00068603946304602F02FF9214602F02CF98A
:1041E000E8603946304601F06DFE214602F024F9C0
:1041F000A8603946304602F014F9214602F01CF955
:104200002860BDE8F0810000CDCC4C3E70B514466E
:104210000D46064601F0D4FF01D2284670BD214666
:10422000304602F0CDF801D2204670BD304670BD58
:1042300000B5244B21F0004287B09A42DCBF002237
:10424000134629DD204B9A4208D140B94FF00100B6
:10425000FCF7F9F8FFF75FFC07B000BD03DBFFF7E1
:1042600057FC07B000BD02AAFFF744F910F00301A4
:1042700004BF0DF1080C9CE80F000DD001200129AE
:104280000ED0022914D00DF1080C00909CE80F000C
:10429000FFF7C8FB07B000BDFFF7F0FA07B000BD9D
:1042A0000DF1080C00909CE80F00FFF7BBFB05E048
:1042B0000DF1080C9CE80F00FFF7E0FA07B081F061
:1042C000004100BDFB21E93F0000F07FEFF31081CA
:1042D00072B6436802699A4201D90268026112F813
:1042E000013B02618268521C8260C268521E81F3E7
:1042F0001088C260184670478B185B1E0160C0E9C9
:1043000001320022C0E903214161104670472DE9C6
:10431000F0475FEA01080546EFF3108672B62FD02A
:10432000AC686CB369686869884201D928686861BB
:10433000944200DD14460F1A7F1CA74206DB22467A
:104340004146FBF7EAFF686920440DE0A4EB07094A
:104350003A464146FBF7E1FF08EB07014A46286869
:10436000FBF7DBFF286848446861A868001BA86069
:10437000E8682044E860204686F31088BDE8F087AE
:1043800086F310884FF0FF30F8E7C06870470000F0
:1043900010B558B1084C491E0BD310F8013B5340DF
:1043A000DBB234F8133083EA1222F4E74FF6FF70E1
:1043B00010BD104610BD00000068000810B5054C87
:1043C00004E000BF10F8013B5340E25C491EF9D203
:1043D000104610BD00670008004870471C00002010
:1043E000004870471A00002070B50C480C4C0D4D69
:1043F000806AA04202DA294601F064FD214602F0FB
:104400001BF8294601F0D2FD012102F0EAF8064925
:1044100001F00AFF0549C1F8700270BD980D002037
:104420009A9979400000B443DC0F4940240B0020E6
:1044300000F00300024900EB800001EB80007047B0
:1044400094020020074B10B55C680460188908804E
:10445000A3F10D00418911804089002801D1372046
:10446000108010BD911000200048704720000020EF
:104470000148007870470000841000200048704711
:10448000E4020020004870471800002000487047F0
:104490002400002000487047F80200202DE9F05F5A
:1044A0005F4D0446287801283BD05E485E4E04F5F7
:1044B000947A417804F1DC0B03293BD001292ED1F9
:1044C000A068B0F9000001F04FFE314601F06EFD2A
:1044D00007466068B0F9000001F046FE314601F081
:1044E00065FD01463A465046FEF736FA06466063D9
:1044F000E068B0F9020001F037FE4C4901F056FDCA
:104500000146324658466B68FEF789FA01F010FE04
:104510002083A068B0F9000001F026FEE063BDE84A
:10452000F09F6068B0F9000001F01EFEE06300201B
:104530002870F4E727684FF42078B7F90400A0F159
:104540001401414508D801F00FFEE16A01F06CFE4C
:10455000E16B01F066FFE063B7F9040000F5257137
:10456000414509D8404201F0FFFDE16A01F05CFEDF
:10457000E16B01F0A7FCE0636768B7F9000001F0A8
:10458000F3FDE16B884601F04CFF314601F00EFD72
:104590002749884204DD2749404601F04DFFE0638A
:1045A000B7F9000001F0E0FDB046314601F0FEFC35
:1045B0000646E06B4146814601F0F8FC314601F0C9
:1045C0003BFF1D49884201D8E06B04E01949484689
:1045D00001F078FCE0634646414601F0E7FC804686
:1045E000B7F9000001F0C0FD314601F0DFFC0146E3
:1045F00042465046FEF7B0F906466063E068B0F9FF
:10460000020001F0B1FD094901F0D0FC014632463B
:1046100058466B68FEF703FA01F08AFD20837EE7B7
:104620004C0000201A0000200000C8420000704228
:104630000000344300A00C47000034C370B50400F0
:1046400025D0E568B5F9020001F08EFD20612869EA
:1046500001F08AFD6FF00C0101F0C3FF0C4D2946FB
:1046600001F0E2FD0B49606201F02CFC0A4EA062F1
:1046700003E0294601F0E0FEA062B042F9DC074EFB
:10468000B04204D9294601F01DFCA062F8E770BDD4
:104690000000B44300000C4300003443000034C366
:1046A000F8B50446FFF7F2FE2060FFF7DDFE60601C
:1046B000FFF792FEA060FFF7EDFEE0601848009063
:1046C0000023184A184904F19000FEF714FA184F15
:1046D00015490025154B3A460C3104F1440000956C
:1046E000FEF709FA1049134E00234FF07E5218319D
:1046F00004F594700096FEF7FEF90B490E4B3A460E
:10470000243104F1DC000095FEF7F5F90B48206434
:104710000B48C4E90B602046BDE8F840FFF78EBFA8
:104720000AD7233C00002F44B866000800007A44F2
:104730000050C346CDCCCC3D0000FA45E17A1A4288
:1047400017B7D13870B51A480024A0F114050460D9
:1047500004711848C5F819406C7740F8094F1C21BE
:1047600044600481847213486C701430FBF71AFEA5
:10477000C5F807400F48C5F80B40A5F805401021C3
:104780003D30FBF70FFE0B4810214D30FBF70AFEC2
:10479000AC70EC702C71C5F82A40EC8585F830407F
:1047A000C5F81E4005F124006C840460848070BD4F
:1047B0006800002054100020FCF746FFFEF7D8F9EF
:1047C000FEF720F8FEF700F8FDF7B6FFFDF7D8FF7B
:1047D000FEF736F8FEF768F8FEF782F8FBF73CFFC5
:1047E0000A48FFF781FA0A4800F076FD0948FFF70A
:1047F00057FF0948FDF740FBFEF79AF9FFF7A2FFC4
:1048000000F02AF90320FCF70FFEF9E7240B002043
:104810000C0F0020980D0020EC00002018B400219F
:10482000ADF800104449026840F202244A6102795E
:104830000A76B0F80520ADF8002092B2A2F2022369
:10484000A24256D01EDCB2F5817F48D00EDC012A90
:1048500030D0022A3BD0032A3CD0B2EB640203D111
:10486000D0F80700C1F8070018BC7047A2F58072A5
:10487000033AF9D0012A37D0FE2AF5D1C11D0D2205
:104880002E483FE0042B43D008DC012B36D0022B0E
:104890003BD0032BE8D1C079C870E5E7052B3AD0AF
:1048A000062B41D0FF2BDFD150F8072F4A628088BA
:1048B0000885D9E7214950F8072F303941F8092FE9
:1048C00042684A6002890A81807A8872CCE7C0799E
:1048D0004870C9E7C11D19481C221C3812E0D0F8E5
:1048E0000700C1F80B00BFE7B0F80700A1F805000A
:1048F000BAE7C11D114810220D3003E0C11D0F4859
:1049000010221D3018BCFBF708BDC0798870ABE7DA
:10491000C0790871A8E750F8072F41F82A2F82883C
:104920008A80807988719FE750F8072FC1F81E2090
:104930008088488498E700005400002084100020FC
:104940002DE9F041A527414C4148FFF71EFD414E9E
:104950000025306172E03E48FFF7B8FC307094F8F3
:10496000861006294BD2DFE801F003131D2D384DC8
:10497000B8420AD1012184F88610B4F88710A31D2B
:104980004A1CA4F88720C85458E0A4F8875055E082
:10499000A080B4F88710A31D4A1CA4F88720C8542F
:1049A000022017E0A188A31D41EA0021A180B4F8EC
:1049B00087104A1CA4F88720C854A08877281ED2E4
:1049C000032007E0B4F88710A31D4A1CA4F8872031
:1049D000C854042084F8860030E0B4F88710A31D82
:1049E0004A1CA4F88720C854B4F88700052825D1AC
:1049F0000521A01D00F0B8FC08B10520EAE784F805
:104A00008650C2E7A288B4F887100932914204D2D6
:104A1000A31D4A1CA4F88720C854A188B4F88700B5
:104A2000093188420AD384F88650A4F88750A01D23
:104A300000F07CFC10B1A01DFFF7F0FE0448FFF76A
:104A4000A4FC002887D1BDE8F0810000D40F00202D
:104A50000C070020540000202DE9F04F8DB0FFF727
:104A600007FDFD4C4FF0030A20706089401C80B2A6
:104A70005B21B0FBF1F201FB12016081F748089065
:104A8000D9B94FF41E7140F24B52CDE904214FF0D9
:104A90007E5306931621CDE900A1CDF80CA0032387
:104AA0000122EFA1CDF808A00898FEF749FBEB49D9
:104AB00022780D390220FEF713FC60896521B0FBD6
:104AC000F1F201FB1202E5480825203000F11C013B
:104AD0000C910F310B910F310A910F3100F10D093B
:104AE00009910F3167304FF4707640F2BF384FF0C4
:104AF000020B002ACDE906017CD160884FF4667173
:104B0000CDE90301009505904FF45272CDE901B251
:104B10005F4600230122D3A14846FEF75FFB608871
:104B200040F2CA31CDE90301009540F2B63205905A
:104B3000CDE9017200230122CBA10C98FEF74EFBB8
:104B400060884FF48761CDE9030100954FF47A72D4
:104B50000590CDE9017200230122C4A10B98FEF754
:104B60003DFB6088002300F10A0189B2CDE90461B0
:104B70000A3880B2CDE90260CDE900570122BCA11C
:104B80000A98FEF72BFBA08840F2A231CDE9030181
:104B9000009540F266320590CDE9017200230122B2
:104BA000B4A10998FEF71AFBA088CDF80880CDE9DA
:104BB000030605900620CDE9005000230122AEA196
:104BC0000798FEF70BFBA08840F21A41CDE90301DC
:104BD000009540F2DE320590CDE9017200230122FA
:104BE000A6A10698FEF7FAFA9C4922782031072000
:104BF000FEF776FB60896F21B0FBF1F201FB12003A
:104C000000287AD1E0884FF46B71CDE9030100955B
:104C100005904FF46172CDE901B25F460023012295
:104C200097A14846FEF7DAFAE088CDF80880CDE98A
:104C3000030605904FF00609CDE900590023012233
:104C400090A10C98FEF7CAFAE0884FF47F71CDE985
:104C5000030100954FF475720590CDE901720023B0
:104C6000012289A10B98FEF7B9FA208940F2B631EA
:104C7000CDE90301009540F2A2320590CDE9017221
:104C80000023012281A10A98FEF7A8FA2089CDF815
:104C90000880CDE903060590CDE9005900230122E3
:104CA0007BA10998FEF79AFA208940F2DE31CDE91E
:104CB0000301009540F2CA320590CDE9017200234C
:104CC000012274A10798FEF789FA20890023A0F138
:104CD0001E0189B2CDE904610A3880B2CDE90260D3
:104CE000CDE9005701226CA10698FEF777FA5B49DF
:104CF000227820310720FEF7F3FA57488321002657
:104D000040890F24B0FBF1F201FB120263484FF01F
:104D1000960800F10D011C304FF005094FF4B477EF
:104D2000CDE90901F2BB40F24E20CDF81080CDE96B
:104D3000050407948DE8E0020223012258A10A9895
:104D4000FEF7BAF94FF42070CDF81080CDE90504D4
:104D500007948DE8E0020223012252A10998FEF790
:104D6000ABF940F2B220CDF81080CDE905040794EC
:104D70008DE8E0024948022301224BA12B30FEF7C7
:104D80009BF94FF43970CDF81080CDE905040794F4
:104D90008DE8E00241480223012244A13A30FEF7A7
:104DA0008BF900E005E02C483C4902780520FEF72D
:104DB00097FA29488D214089B0FBF1F201FB1200DE
:104DC000D0B94FF416732620CDE9040338A2069219
:104DD000CDF80CA0062012210095CDE901101F4846
:104DE0000223012234A1A530FEF730FA1A480178D7
:104DF0001A489830FEF7ECFA174897214089B0FB23
:104E0000F1F201FB1200D0B940F28A232621CDE94C
:104E100004132AA206920620CDF80CA012210095B8
:104E2000CDE901101D480223012226A16B38FEF7AF
:104E30000DFA0948017819487838FEF7C9FA06488A
:104E4000A1214089B0FBF1F201FB120113482F3878
:104E50000790E9BB1CA33CE086000020BE100020A8
:104E600032303100303031003030320030303300F9
:104E700030303400303035003030360030303700DC
:104E800030303800303039003031300030313100CE
:104E90003031320030313300303134000A1200201A
:104EA00031303600313037003130380031303900A0
:104EB0006175746F0000000033303400666F6C6CF5
:104EC0006F770000333035007370696E00000000AA
:104ED00017E004A94FF42F722620CDF80CA081E82A
:104EE0000D00042012210095CDE9011002230122BA
:104EF0007AA10798FEF7AAF9794801787948FEF770
:104F000067FA7748AB214089B0FBF1F201FB120050
:104F1000C0B940F2EE232620CDE9040372A2069226
:104F2000CDF80CA0042012210095CDE90110022338
:104F300001226FA10798FEF789F96948017869484D
:104F4000FEF746FA664815214089B0FBF1F201FBF5
:104F50001200002871D167484068B0F9020001F0E2
:104F600003F9654901F022F84FF41E72CDE90520DE
:104F700040F24B53CDE903A31620CDE900A0032353
:104F80000222AFF22411CDF808A00898FEF7D8F855
:104F900053485A4902780220FEF7A2F9DFF860A1CF
:104FA0009AF80100CDF81080012840F24E20CDE99A
:104FB000050407940DD002231A46AFF21C118DE8A8
:104FC000E0020A98FEF778F89AF8010003280AD060
:104FD0000DE002231A46AFF2381101A8CDF800B057
:104FE00080E8C002EDE79AF80000032814D04FF4DF
:104FF0002070CDF81080CDE9050402231A46AFF2E7
:105000005C1107948DE8E0020998FEF755F89AF8CC
:105010000110032912D015E04FF42070CDF8108054
:10502000CDE9050402231A46AFF2881101A8CDF894
:1050300000B0079480E8C002E6E74CE09AF8000070
:1050400002282DD040F2B220CDF81080CDE9050421
:1050500002231A46AFF2B01107948DE8E0020998D6
:10506000FEF72AF827480088CDF8108001284FF471
:105070003970CDE90504079423D002231A46AFF214
:10508000D4118DE8E0020998FEF716F81448154986
:1050900002780DB03C31BDE8F04F0520FEF720B995
:1050A00040F2B220CDF81080CDE9050402231A4663
:1050B000AFF20C2101A8CDF800B0079480E8C0023F
:1050C000CDE702231A46AFF21C2101A8CDF800B0AB
:1050D00080E8C002D7E70DB0BDE8F08F333036006E
:1050E00086000020CE110020667269630000000077
:1050F00033303700980D00200000C842B110002066
:105100001A0000201E00002000B5254B21F00042AF
:1051100087B09A4203DC0022134600922BE0214B19
:105120009A4208D140B94FF00100FBF78CF9FEF725
:10513000F2FC07B000BD03DBFEF7EAFC07B000BDE0
:1051400002AAFEF7D7F910F003014FF001000DD0CD
:10515000012914D002291AD00DF1080C9CE80F0087
:10516000FEF78CFB07B081F0004100BD0DF1080C8B
:1051700000909CE80F00FEF755FC07B000BD0DF154
:10518000080C9CE80F00FEF779FB07B000BD0DF19D
:10519000080C00909CE80F00FEF744FCE2E70000DA
:1051A000FB21E93F0000F07F2DE9F04106460F4664
:1051B00000F08CFC041E0D4618BF0120284320F08F
:1051C0000040C0F17F6000F1E040C00F0ED0301C05
:1051D00018BF0120384320F00040C0F17F6000F18B
:1051E000E040C00F04BF0120FBF72DF920462946FF
:1051F000BDE8F0812DE9F041056804464FF4A5763D
:10520000B5F90000B0420DDB208C68B94FF07E513B
:10521000A06A00F057FEA06201202084B5F90000CA
:10522000B04201DA00202084A06A0D21064601F078
:10523000D8F91B4900F0F8FF1A4900F0B7FE012128
:1052400001F0CFF9184900F0B1FE05466062E0694F
:1052500000F08AFF0746294601F0E3F81349884227
:1052600006DD4905304601F0E7F8A062BDE8F081AF
:1052700039462A4604F17C00FDF76EFB0546E062E4
:105280006068B0F9020000F06FFF01462A4604F1A1
:105290003000FDF761FB00F04BFF05490882E5E7B0
:1052A0000070604500003B430000E0400092AF47C3
:1052B0000C0F002070B504000AD06568B5F9020033
:1052C00000F052FF034900F0AFFFA0602869E061E1
:1052D00070BD00000A01DA3938B50446FFF7D2F88C
:1052E0002060FFF7CBF8002560602B460B4A0C4985
:1052F00004F17C000095FDF7FEFB0949094B0A4AC1
:105300000C3104F130000095FDF7F5FB2046FFF766
:10531000D1FFE562A562258438BD00000000484544
:10532000E866000800409C4500007A4630B50C460F
:10533000050014D0022C12D90A48A11E0288284662
:10534000FFF726F82919C2B211F8023C9A4206D199
:1053500011F8011CB1EB102F01D1012030BD00204C
:1053600030BD00009200002030B50C4605000CD086
:10537000022C0AD9FF22611EFFF720F8291911F823
:10538000011C814201D1012030BD002030BD000050
:1053900021F00042A2F16052B2F5801F01F00043FB
:1053A00028BFD2F17F6C0BD95FEA001C43EAC2022E
:1053B00042EB507018BF704728BF20F001007047C3
:1053C000B2F5801FBCBF184670474FEA410C1CF570
:1053D000001F02D2084600F0EEBF70B500F016FBC9
:1053E00000000089FFF7F6BF4FF00040A0F58000F5
:1053F0007047000010B591EA030F48BF83F00043E7
:1054000000F15284841A71EB030C05D2121943EB9C
:105410000C03001B61EB0C01DFF824E14FEA11548F
:10542000A4EB135C1EEA430F18BF9EEA445F73D0DF
:1054300023EA0E03DCF1200E21EA045143F4801329
:1054400032D322FA0CFE10EB0E0023FA0CFE41EBD5
:105450000E01CCF1200E03FA0EFE10EB0E0051F1FE
:105460000001B1F5801FCCF1200E32D201EB0451C6
:1054700012FA0EF2BDE8104058BF7047401C38BF0A
:105480005FEA420218BF7047002814BF20F00100F5
:1054900041F100014FEA410313F5001F38BF704787
:1054A000A1F1C04100F000BB012A43EB0302ACF1C3
:1054B000200CDCF11F0E32BF4FF0000E23FA0CF36C
:1054C00010EB030041EB0451B4EB115FD0D0A1EB22
:1054D000045101F5801149085FEA300001EB0451E5
:1054E0000ED350F1000038BF12FA0EFE08D1BDE80D
:1054F0001040C9E7401C38BF5FEA4202CAD1C3E787
:10550000BDE810404FEA410313F5001F38BF704754
:10551000A1F1C04100F0C8BA9EEA445F08D011EA88
:105520005E0FBDE8104004BF01F00041002070474D
:10553000BDE8104070B500F069FA00BF64FBBE3EE4
:105540000000E0FF02494FF0000000F0EABF00BF9A
:105550000000F87F2DE9C04130B4DFF8A0C23CEA7A
:10556000111418BF3CEA131400F0EC8081EA030523
:105570001CEA111444EAD57418BF1CEA131500F094
:10558000C780A4EB05044FF0004545EAC12145EA78
:10559000C32341EA505143EA525304F17F749942C4
:1055A00004F500344FEAC0204FEAC22208BF9042FF
:1055B00000F09C804FEA13650FF24016765D4FEACB
:1055C000134506FB05F7C7F1807706FB07F74FEA9F
:1055D000D737A7FB03687642C8F58038A7FB06CE0D
:1055E00038BFA8F1010807FB08E64FF0000EA6FB44
:1055F000028CE6FB03CEDCF1000CCEF1004E38BF8E
:10560000AEF1010EA6FB0C584FF000074FF000055D
:10561000E6FB0E87A1FB08C6A0FB07CE16EB0E0625
:1056200045F10005E1FB076515F1E04E7EBFA4F5ED
:1056300080345FEA46066D4116F1800745F10005AA
:105640004FEA17274FEA066647EA0567A6F1DE46E6
:10565000B6F1805F4FEA15251FD9384624F0010CBA
:1056600005EBC471BCF1FE6F01EB0C1102D8F0BC6C
:10567000BDE8008124425CBF01F5801E9EEAC47F24
:1056800002D4F0BCBDE80081244238D4F0BCA1F1C2
:10569000C041BDE8004100F007BA4FEAD22242EA19
:1056A00043524FEAD323A7FB02864FEAD02040EAB9
:1056B000415007FB03661EEA0E0F4FEAD12105FB9E
:1056C000026658BFA6EB0056B6EB00564FEA520EE4
:1056D0004EEAC37E18EB0E0E56EB530EBDD518EBFB
:1056E00002085E417F1C55F10005B6E74FF48015B6
:1056F0004FF000074FF000064FF00008ADE7F0BC98
:105700004FF0000001F1C04101F00041BDE800810F
:1057100011EA0C1F0CEA131500D00CE013EA0C1F61
:1057200000F025804FF00000F0BC81EA030101F099
:105730000041BDE80081F0BCBDE8004181EA030101
:1057400000F0B2B9F0BCBDE8004170B500F05EF900
:10575000097EFC3E00F007B881EA03014FF000002B
:1057600001F00041704781EA030100F09DB9F0BCEF
:10577000BDE800414FF0000021497047FFFDFBF9F3
:10578000F7F5F4F2F0EEEDEBE9E8E6E4E3E1E0DE74
:10579000DDDBDAD8D7D5D4D3D1D0CFCDCCCBCAC8E6
:1057A000C7C6C5C4C2C1C0BFBEBDBCBBBAB9B8B70D
:1057B000B6B5B4B3B2B1B0AFAEADACABAAA9A8A800
:1057C000A7A6A5A4A3A3A2A1A09F9F9E9D9C9C9BCE
:1057D0009A99999897979695959493939291919079
:1057E0008F8F8E8E8D8C8C8B8B8A8989888887870A
:1057F0008685858484838382828181800000FF077F
:105800000000F87F4FEA41034FEA5353A3F580634A
:10581000D3F11E03C8BFD3F1210C0CDD4FF00042C1
:1058200042EAC12242EA505232FA03FC8CEAE17C9D
:10583000ACEBE1707047102BC4BF0020704703F53C
:10584000787CBCF1FF3F04D06FF0004282EA210077
:10585000704770B500F0DAF8499224800020704754
:10586000F2E710F0004248BF4042B0FA80F310FA6D
:1058700003F10AD0C3F11D0303F580634FEA4150E1
:1058800002EB035202EBD12170474FF0000070474A
:10589000B0FA80F310FA03F10AD0C3F11D0303F547
:1058A00080634FEA41504FEA035202EBD121704727
:1058B0004FF0000070470000DFF848C170B51CEAE7
:1058C000111E1EBF1CEA13159EEA0C0F95EA0C0F61
:1058D00000F06F8081EA030423EA4C134EEAD47E81
:1058E00021EA4C1141F4801143F48013AE44A1FB32
:1058F000024CA0FB0365AEF17F7E361955EB0C051B
:10590000A1FB034C4CF10003A0FB021C16EB0C06A0
:10591000654153F10003094218BF46F0010613F434
:10592000007F0BD14FEA03314FEA0530340341EADF
:10593000155140EA16506FF003020AE04FEAC32106
:105940004FEAC520F40241EA555140EA56506FF043
:10595000020202EB2E4201EB025585EACE710AD01B
:105960005FEA440C18BF24F0004450F1000041F1FC
:10597000000120EAD47040F2FE7C624500D270BD86
:10598000A84214BF4FF080444FF04044002E08BF9F
:105990000024BEF1806FA8BFA1F1C041BDE87040F6
:1059A00080F282804FF0000001F1C04101F000411F
:1059B00070479EEA0C0F0CEA131518BF95EA0C0FFE
:1059C00006D04FF0000081EA030E0EF0004170BDDA
:1059D00000F01CF88900013E00F007B800F009B89B
:1059E0004FEA430C5FEA5C5C08D081EA030100F0F7
:1059F0005BB84FEA410C5FEA5C5CF6D14FF0000007
:105A0000014970470000FF070000F87F0EF1020E09
:105A10002EF0030E5EF8046B364205D4012A43EBE8
:105A2000030515F5001F12D8012841EB010C1CF5E8
:105A3000001F0CD80ED14FEAD17C15F5001F0CEBDE
:105A40004C0C0CF1020C08BF4CEBD37C04E04FF083
:105A5000080C01E04FEAD37C0CEB4C0526FA05F666
:105A600006F00706B6F1040C06D20EEB860CBDE874
:105A700070404CF0010C6047DFE80CF0090B0202AB
:105A80004FF000414FF00000A1F5002170BD194614
:105A90001046012851EB010418BFD4F5001484BF4F
:105AA000002001F0004170BD0808A0F500114FEA88
:105AB0003101704791EA030F10B581F000413FF5C5
:105AC000A1AC83F0004300F0EFB800002DE9F041F5
:105AD00001F5801CBCF5001FC0F2C3804FEA115CC9
