:020000040800F2
:10000000900B0020ED010008A31B0008371A000820
:10001000651B0008E30300080B1E00080000000039
:10002000000000000000000000000000A51C000807
:10003000D504000800000000A31C0008A71C00084D
:10004000070200080702000807020008070200086C
:10005000070200080702000807020008070200085C
:10006000070200080702000807020008070200084C
:10007000070200080702000807020008070200083C
:10008000070200080702000807020008070200082C
:10009000E50300080702000807020008070200083D
:1000A000070200080702000807020008070200080C
:1000B000191D0008070200080702000807020008CF
:1000C00007020008070200080702000807020008EC
:1000D00007020008070200080702000807020008DC
:1000E00007020008070200080702000800000000DD
:1000F0000000000000000000000000000000000000
:1001000000000000000000000702000807020008CD
:10011000070200080702000807020008070200089B
:10012000070200080702000807020008070200088B
:10013000070200080000000000000000070200089D
:10014000F103000807020008070200080702000880
:1001500000F002F800F03AF80AA090E8000C82449F
:100160008344AAF10107DA4501D100F02FF8AFF27C
:10017000090EBAE80F0013F0010F18BFFB1A43F085
:1001800001031847582A0000782A0000103A24BFBB
:1001900078C878C1FAD8520724BF30C830C144BFEC
:1001A00004680C607047000000230024002500262E
:1001B000103A28BF78C1FBD8520728BF30C148BFCA
:1001C0000B6070471FB51FBD10B510BD00F0CFF814
:1001D0001146FFF7F7FF02F093F800F0EDF803B4D3
:1001E000FFF7F2FF03BC00F0F5F800000948804774
:1001F00009480047FEE7FEE7FEE7FEE7FEE7FEE709
:10020000FEE7FEE7FEE7FEE704480549054A064B20
:1002100070470000151D00085101000890050020DE
:10022000900B0020900700209007002053EA020C5A
:1002300000F069802DE9F04B4FF00006002B1FBF46
:10024000B3FA83F503FA05F424FA05F65E4012BF0B
:100250001643B2FA82F502FA05F4C5F120051EBF75
:1002600022FA05FC44EA0C04203556EA044C4FEA15
:10027000144418BF641C4FF000084FF0000990426E
:1002800071EB030C39D3002919BFB1FA81F701FAD8
:1002900007F6B0FA80F700FA07F6C7F120071EBF8D
:1002A00020FA07FC46EA0C062037B6FBF4FCA7EB65
:1002B0000507103F07F01F0BCBF120060CFA0BFBD4
:1002C0002CFA06F644BFB3460026202FA4BF5E4694
:1002D0004FF0000B5BEA060C08BF4FF0010B19EB67
:1002E0000B09ABFB027C48EB0608C01B06FB02CCEB
:1002F0000BFB03CC71EB0C01C1E70B4602464146F8
:100300004846BDE8F08B13B54FF000004FF00001F8
:10031000AFF30080BDE81C4070474FF0000200B50D
:10032000134694469646203922BFA0E80C50A0E818
:100330000C50B1F12001BFF4F7AF090728BFA0E8C6
:100340000C5048BF0CC05DF804EB890028BF40F892
:10035000042B08BF704748BF20F8022B11F0804FD4
:1003600018BF00F8012B70477047704770477546FB
:1003700000F02CF8AE4605006946534620F0070011
:10038000854618B020B5FFF73FFFBDE820404FF08D
:1003900000064FF000074FF000084FF0000B21F06F
:1003A0000701AC46ACE8C009ACE8C009ACE8C0093C
:1003B000ACE8C0098D46704710B50446AFF3008025
:1003C0002046BDE81040FFF70ABF00000048704714
:1003D0003005002001491820ABBEFEE726000200D0
:1003E0007047FEE7014800F0EAB900003C00002039
:1003F000014800F0E4B900006400002038B50E4C5C
:100400004FF4007525600025A560E560082525618D
:100410000A4C050A25706070080AA070E170100A85
:1004200020716271180AA071E3716B46224602497D
:10043000034800F064F838BDD40000201E000020FE
:100440003C0000200A4908B540F2FF220A60002261
:100450008A60CA6008220A610649020A6B460A716C
:1004600048710A460249044800F049F808BD0000F6
:10047000EC000020260000203C00002000B58BB0DE
:1004800000200121CDE90601089100900190029021
:1004900003900590049069460C4800F08FF80B48D3
:1004A00000F010FC0221094800F017F80E20099016
:1004B00005906946064800F081F8054800F002FC06
:1004C0000221034800F009F80BB000BD3C000020F9
:1004D00064000020704772B6FEE790F82020012AE1
:1004E00007D0022A05D0416A41F4802141620120EF
:1004F0007047006842690A43426100207047F0B5C6
:1005000090F820500468A468012D05D0022D03D076
:10051000416A41F480214DE014F0406F01D1E500C3
:1005200045D5C4F301640125A5401D608D684FF4D5
:10053000C0739DB1CE6835434E6845EAC60506686E
:1005400003EB0417F5514FF4C275076805EB04156A
:100550000E697E51097D012905D009E00E88CD681C
:1005600045EA4655EBE701684E5946F480764E5110
:100570001179D2F805504FF4C67641EA0521056895
:1005800006EB0416A9511178D2F801204FF4C47576
:1005900041EA0221026805EB04155151006803EBA2
:1005A0000411425842F0010242500020F0BD416A5D
:1005B00041F4001141620120F0BD000010B590F837
:1005C0002020012A07D0022A05D0416A41F4802167
:1005D0004162012010BD3B48D0F8002242F00102E8
:1005E000C0F80022D0F8002222F47C52C0F8002289
:1005F000D0F800224B6A42EA0322C0F800220A7DAA
:1006000002F01F0301229A40D0F81C329343C0F835
:100610001C32CB69B3B9D0F80C329343C0F80C321A
:100620008C894B6864F31F434C6900EBC404C4F825
:1006300040320C890B6864F31F434C6900EBC4041F
:10064000C4F84432CB69012B16D1D0F80C321343D5
:10065000C0F80C320C884B6864F31F434C6900EB04
:10066000C404C4F840320C89CB6864F31F434C695E
:1006700000EBC404C4F844328B69002BD0F8043278
:100680000ED01343C0F804320B69002BD0F814329B
:1006900008D01343C0F81432096A012904D008E0D5
:1006A0009343EFE79343F5E7D0F81C121143C0F8EA
:1006B0001C12D0F8001221F00101C0F80012002035
:1006C00010BD000000640040704770B590F82040F5
:1006D000012C05D0022C03D0416A41F4802128E08E
:1006E000046809B32469A40720D04FF4D8740568BE
:1006F00004EB01142D5915F00405956005682D597A
:100700001AD0ED08556005682C5904F00204D46035
:100710004FF4DA74056804EB01142E5906F00F0645
:10072000082E0CD308250DE0E468DCE7416A41F4AB
:1007300000114162012070BD6D0D1560E3E72D5978
:1007400005F00F05156105682D59C5F3072595615D
:1007500005682C59240C54614FF4DC72046802EBD8
:100760000112A4581C700468A458240A5C70046820
:10077000A458240C9C700468A258120EDA704FF42E
:10078000DE72046802EB0112A4581C710468A458BC
:10079000240A5C710468A458240C9C710468A25853
:1007A000120EDA71006829B1016941F0200101617E
:1007B000002070BDC16841F02001C160F8E72DE95B
:1007C000F05F0546006800244669D0F80490876809
:1007D000D0F80CB0D0F810A0D0F81880F10748D0AD
:1007E000F90714D001218160B80703D5284600F02D
:1007F00096FA0CE0780702D54FF4006407E038075A
:1008000002D54FF4805402E0284600F087FAF8053C
:1008100016D529684FF480708860B80503D528463E
:1008200000F07FFA0CE0780502D544F4005407E0AC
:10083000380502D544F4804402E0284600F070FAFE
:10084000F80316D529684FF480308860B80303D5C3
:10085000284600F068FA0CE0780302D544F400441E
:1008600007E0380302D544F4803402E0284600F063
:1008700059FA300707D55FEACB6004D52968102004
:1008800044F40074C86070074FF0080707D55FEAAA
:100890000B7004D52868C760284600F0A5F9B0079A
:1008A00006D52868C068800702D0284600F09EF967
:1008B000700607D55FEACA6004D52968102044F4A1
:1008C00080640861B00607D55FEA0A7004D528681D
:1008D0000761284600F0F2F9F00606D5286800699D
:1008E000800702D0284600F0EAF9B00308D55FEA95
:1008F000C96005D5296810204860284600F0E0F955
:10090000F00307D55FEA097004D5286847602846D8
:1009100000F00AFA300446D55FEA497040D5F00588
:1009200004D55FEAC87001D044F00104B00504D5D5
:100930005FEA887001D544F00204700504D55FEACF
:10094000487001D544F00404300529D518F0700F23
:1009500026D008F07000402815D006DC102809D0F9
:1009600020280AD0302816D10AE050280ED060285E
:1009700011D10EE044F008040DE044F010040AE048
:1009800044F0200407E044F0400404E044F0800414
:1009900001E044F480742868816921F0700181616C
:1009A000296804204860002C05D0686A20436862EA
:1009B0002846FFF789FEBDE8F09F70B5040003D01C
:1009C00094F8200010B104E0012070BD204600F032
:1009D00081F82068016841F00101016000F096FA99
:1009E0000546052604E000F091FA401B0A2811D8BC
:1009F00020684068C007F6D02068016821F0020135
:100A0000016000F083FA05460BE000F07FFA401B1E
:100A10000A2806D9606A40F40030606284F82060D9
:100A2000D2E7206840688007EFD4207E0128206844
:100A300001683DD021F080010160607E01282068BE
:100A4000016838D021F040010160A07E01282068B3
:100A5000016833D021F020010160E07E0128206888
:100A600001682ED041F010010160207F012820682C
:100A7000016829D021F008010160607F0128206809
:100A8000016824D021F004010160D4E90201084387
:100A9000D4E90412114308436168491E08432168E0
:100AA000C86100206062012084F82000002070BD31
:100AB00041F08001C0E741F04001C5E741F020016D
:100AC000CAE721F01001CFE741F00801D4E741F077
:100AD0000401D9E7F0B585B000213E4A00910191AB
:100AE0000291039103681068394F3B4C022503269D
:100AF0003A49401CBB4232D11060012807D1C86975
:100B000040F00070C861C86900F000700490886906
:100B100040F0080088618869694600F00800049088
:100B20004FF480700090204600F000F94FF4007000
:100B3000CDE9000569460396204600F0F7F82848FD
:100B4000416821F4C04141F0E06141F480414160DD
:100B500000220621142000F045FA142033E0214F32
:100B6000BB4232D1CB6943F08063CB61CB690128B2
:100B700003F080630493106007D1C86940F00070EF
:100B8000C861C86900F000700490886940F00800EE
:100B900088618869694600F0080004904FF480502D
:100BA0000090204600F0C2F84FF40050CDE9000557
:100BB00069460396204600F0B9F80022062140203D
:100BC00000F010FA402000F0FFF905B0F0BD000081
:100BD0000064004000000020000C014000100240B2
:100BE00000000140006800407047000010B588B068
:100BF00004462E4B6A460021FFF767FD2C4920680A
:100C0000884237D10098A0F50071013903D12749F6
:100C1000284800F0A8FF0098A0F50071023904D11F
:100C200024482249143000F09EFF0098A0F500717E
:100C3000033904D11F481D49283000F094FF009863
:100C4000B0F5017F04D11B4818493C3000F08BFF00
:100C50000098022804D117481449503000F083FF4F
:100C60000098A0F500710B3904D112480F49643087
:100C700000F079FF10492068884214D100980B4B8E
:100C8000012808D1D988A3F11A0049BA0180194670
:100C9000001D01F0BBF80098022804D10348198810
:100CA000183849BA018008B010BD00002E0000209D
:100CB0000064004004010020006800407047704755
:100CC0007047000070B5044690F82000012804D059
:100CD000606A40F40020606218E0022084F820007E
:100CE0002068016821F00101016000F00FF905465C
:100CF0000EE000BF00F00AF9401B0A2808D9606A1C
:100D000040F400306062052084F82000012070BDAE
:100D100020684068C007EDD1606270BD70477047C1
:100D20007047704770477047704700002DE9F84FD3
:100D3000DFF8B8910024A9F1040B23460F2709F12D
:100D4000040AABF1040EC9E00125A5402A40AA42DD
:100D50007DD1674ED1F804C0ACEB0608B44532D063
:100D600014DCBCF1030F3AD009DCBCF1000F2AD02F
:100D7000BCF1010F1CD0BCF1020F31D11DE0BCF160
:100D8000110F17D0BCF1120F2AD119E0B8F5881F46
:100D900019D006DCB8F5803F15D0B8F5801F1FD1FB
:100DA00011E0B8F5001F0ED0B8F5041F18D10AE005
:100DB000CB6815E0CB681B1D12E0CB6808330FE051
:100DC000CB680C330CE08B682BB1012B4FF0080380
:100DD00003D0456104E0042302E0056100E0002344
:100DE000FF2A01D8064601E000F104064FEA840517
:100DF00001D9A5F12005D6F8008007FA05FC28EAFC
:100E00000C0803FA05F548EA0508C6F800804D68A5
:100E1000ED0062D5374DAE6946F00106AE61AD69B1
:100E200024F0030605F001050095334D06EB050C93
:100E3000DCF80850A607360F07FA06F825EA080579
:100E4000DFF8B880404503D14FF0000817E044E0D8
:100E5000DFF8AC80404502D14FF001080FE0DFF829
:100E6000A480404502D14FF0020808E0DFF89880E6
:100E7000404502D14FF0030801E04FF0040808FAA2
:100E800006F848EA0508CCF808804D68D9F80060F3
:100E9000ED024D4601D5164300E096432E604D68A5
:100EA000DAF80060AD02554601D5164300E09643DE
:100EB0002E604D68DBF80060AD035D4601D516433A
:100EC00000E096432E604D68DEF80060ED03754645
:100ED00001D5164300E096432E60641C0D682A4637
:100EE000E5407FF431AFBDE8F88F00000804014011
:100EF00000001110001002400000014000080140F5
:100F0000000C0140001001400014014001488068BD
:100F100070470000040000200248816802781144F4
:100F20008160704704000020074810B5016841F057
:100F300010010160032000F075F80F2000F006F8A2
:100F400000F024F8002010BD0020024070B50D4DC7
:100F500004464FF47A712878B1FBF0F00A49096829
:100F6000B1FBF0F000F03EFB48B9102C07D2002294
:100F70002146501E00F036F800206C6070BD012044
:100F800070BD000004000020100000200C4808B5CF
:100F9000816941F001018161816901F001010091E4
:100FA000C16941F08051C161C06900F0805000907A
:100FB0000448416821F0E06141F00071416008BDE2
:100FC0000010024000000140002809DB00F01F0271
:100FD000012191404009800000F1E020C0F800119B
:100FE00070470000F0B40E4B1B680C46C3F302239D
:100FF000C3F10705042D00D90425191D072901D2C5
:10100000002300E0DB1E012606FA05F1491E2140FF
:1010100099409E40761E16403143F0BC00F000BF60
:101020000CED00E0064900F0070208684FF6FF03E8
:10103000184040EA0220034A10430860704700004D
:101040000CED00E00000FA052DE9F0470F46050021
:1010500061D0434E306800F00700B84209D23068D2
:1010600020F0070038433060306800F00700B842D5
:1010700051D128683B4C810712D5400703D56068E1
:1010800040F4E06060602878000703D5606840F4B1
:10109000605060606068A96820F0F00008436060FC
:1010A0002878C00728D06868012810D02168022855
:1010B00010D0890700292EDA616821F0030101436D
:1010C0006160FFF723FF804641F288390DE0216817
:1010D0008903EFE78901EDE7FFF718FFA0EB0801AF
:1010E000494502D90320BDE8F0876068696800F0CF
:1010F0000C00B0EB810FEFD1306800F00700B84270
:101100000BD9306820F0070038433060306800F0B9
:101110000700B84201D00120E5E72878400705D54F
:101120006068E96820F4E0600843606028780007A0
:1011300006D56068296920F4605040EAC10060600B
:1011400000F018F86168084AC1F30311515CC84007
:101150000649086006480068FFF7F8FE0020C2E76D
:101160000020024000100240842B000810000020E4
:10117000080000202DE9F0411D494A681D4802F091
:101180000C03042B2ED0082B2CD11B48C2F3834315
:10119000C45CD00328D5C86A174A00F00F000E328D
:1011A000105CCA6AD20316D5CA6AC96AC2F30312AE
:1011B000C1F30321521C891CA2FB0023A1FB0415CF
:1011C0000C4F0026A1FB070C05FB07C501FB0651D0
:1011D000FFF72CF803E007496143B1FBF0F00D2C59
:1011E00000D14008BDE8F08104486043FAE7000000
:1011F0000010024000127A00662B000800093D0032
:101200002DE9F84F040070D02078F14DC00749D087
:101210006868C0F38100012807D06868C0F38100C6
:10122000022809D16868C00306D52868800339D52B
:10123000A0680028E7D035E0A068B0F5803F0BD06B
:1012400010B1B0F5A02F11D0286820F480302860AC
:10125000286820F4802002E0286840F4803028606C
:10126000A06890B1FFF752FE06460AE0286840F4F5
:1012700080202860F0E700BFFFF748FE801B64284D
:1012800076D828688003F7D50CE0FFF73FFE0646C6
:1012900005E000BFFFF73AFE801B6428F0D82868FD
:1012A0008003F7D42078CB4E80074FF001094FF030
:1012B00000073AD5686810F00C0F07D06868C0F3D3
:1012C0008100022809D16868C00306D42868800715
:1012D00015D56069012808D111E06069B8B1C6F878
:1012E0000090FFF713FE804606E042E1FFF70EFE96
:1012F000A0EB08000228C3D828688007F6D5286824
:10130000A16920F0F80040EAC10028600DE03760D4
:10131000FFF7FCFD804605E0FFF7F8FDA0EB0800B5
:101320000228ADD828688007F6D4207800072ED58B
:10133000A948E169E9B1C0F80090FFF7E7FD8046F0
:1013400006E000BFFFF7E2FDA0EB0800022897D8F7
:10135000686A8007F6D5A1484FF4FA510068B0FBDF
:10136000F1F0009000BF0098411E0091FAD20EE00B
:10137000B0E00760FFF7CAFD804605E0FFF7C6FD55
:10138000A0EB0800022889D8686A8007F6D4207884
:10139000400763D5E8694FF00008C00009D4E86948
:1013A00040F08050E861E8694FF0010800F080509B
:1013B00000908B480168C90512D40168834641F446
:1013C00080710160FFF7A2FD824605E0FFF79EFDF8
:1013D000A0EB0A0064287DD8DBF80000C005F5D535
:1013E000206901280AD008B1052813D0286A20F006
:1013F00001002862286A20F0040002E0286A40F018
:1014000001002862206941F2883B98B1FFF77EFD18
:1014100082460BE0286A40F004002862EEE700BF35
:10142000FFF774FDA0EB0A01594553D8286A8007DD
:10143000F6D50CE0FFF76AFD824605E0FFF766FD92
:10144000A0EB0A01594545D8286A8007F6D4B8F1BF
:10145000000F03D0E86920F08050E861E06AD0B363
:101460006968C90307D56968C1F38101022902D1FE
:10147000E96AC9037DD4022808D0E86A20F48030E4
:10148000E862B766FFF742FD80463BE02868C0008F
:1014900005D5E86A616B00F0F000884269D1B76653
:1014A000FFF734FD804605E0FFF730FDA0EB0800B4
:1014B000642874D828680001F6D4E86A616B20F0CB
:1014C000F0000843E862E86A216B20F4706008438A
:1014D000E86201E063E018E0C6F86890FFF716FDE7
:1014E000804605E0FFF712FDA0EB0800642856D8FF
:1014F00028680001F6D508E0FFF708FDA0EB08001A
:1015000064284CD828680001F6D4206A90B3696832
:10151000C1F38101022949D00228376603D0FFF7C1
:10152000F5FC04463EE0FFF7F1FC074605E000BF8E
:10153000FFF7ECFCC01B022831D828688001F7D4E3
:10154000606AB0F5803F09D1E86A61680843E862E3
:10155000E86AE16820F00F000843E862D4E9090175
:101560000843696821F4741108436860C6F8609004
:1015700001E028E029E0FFF7C9FC044605E000BFD0
:10158000FFF7C4FC001B022809D828688001F7D5A2
:101590001BE000BFFFF7BAFC001B022802D90320A2
:1015A000BDE8F88F28688001F4D40EE00128F7D058
:1015B0006868626A00F48031914204D1A16A00F443
:1015C0007010884201D00120EAE70020E8E700001F
:1015D00000100240000042428004424210000020FD
:1015E0000070004010B5401EB0F1807F01D3012093
:1015F00010BD4FF0E02460610F21601700F010FC77
:101600000020A06107202061002010BD70477047B6
:1016100070B590F83C20012A29D0012480F83C4084
:10162000022280F83D2003685A689D6822F0700607
:101630000A6832435A600F4B02689A420BD0B2F1EB
:10164000804F08D00C4B9A4205D00C4B9A4202D0E6
:101650000B4B9A4204D1496825F0800319439160ED
:1016600080F83D40002180F83C10084670BD022003
:1016700070BD0000002C0140000400400008004044
:10168000000C004010B5040003D094F83D0010B1E8
:1016900007E0012010BD002084F83C00204600F047
:1016A0001FF8022084F83D00211D206800F03AFB5D
:1016B000012084F8460084F83E0084F83F0084F856
:1016C000400084F8410084F8420084F8430084F824
:1016D000440084F8450084F83D00002010BD00005F
:1016E00008B50068B0F1804F12D10A48C16941F0D5
:1016F0000101C161C069002200F0010000900521D4
:101700001C20FFF76FFCBDE808401C20FFF75CBC05
:1017100008BD00000010024090F83D10012901D0E2
:1017200001207047022180F83D100168CA6842F02C
:101730000102CA6000680D4988420BD0B0F1804FA9
:1017400008D00B49884205D00A49884202D00A498C
:10175000884204D1816801F00701062903D001689D
:1017600041F001010160002070470000002C0140A1
:101770000004004000080040000C004070B5044622
:1017800090F83C000025012817D0012684F83C6021
:10179000022084F83D002068826822F0770222F45B
:1017A0007F4282600868502838D00DDC20284FD056
:1017B00005DC90B3102811D14AE0022070BD30281A
:1017C00046D040280AD13BE060282FD070280DD0A9
:1017D000B0F5805F03D0B0F5005F12D0012584F82A
:1017E0003D60002084F83C00284670BDCB68D1E9FC
:1017F0000121206800F0D4FA2068816841F0770167
:1018000009E0CB68D1E90121206800F0C9FA20681D
:10181000816841F480418160E1E719E0CA68496864
:10182000206800F0CFFA5021206806E0CA684968B5
:10183000206800F0D8FA6021206800F0BBFACEE7FB
:10184000CA684968206800F0BDFA40212068F4E7C2
:10185000226801461046F0E7704770B504460068FC
:1018600001694FF00005C943890715D4C168C94310
:10187000890711D4E91E0161012020772068806961
:101880008007204602D0FFF7E7FF04E000F098F859
:10189000204600F096F8257720680169C94349077A
:1018A00017D4C168C943490713D46FF0040101611B
:1018B000022020772068806910F4407F204602D003
:1018C000FFF7CAFF04E000F07BF8204600F079F84B
:1018D000257720680169C943090716D4C168C9433F
:1018E000090712D46FF008010161042020772068F5
:1018F000C0698007204602D0FFF7AEFF04E000F089
:101900005FF8204600F05DF8257720680169C9433B
:10191000C90617D4C168C943C90613D46FF01001B2
:101920000161082020772068C06910F4407F2046BC
:1019300002D0FFF791FF04E000F042F8204600F0EB
:1019400040F8257720680169C943C90708D1C168F3
:10195000C943C90704D1891E0161204600F032F84D
:1019600020680169C943090609D4C168C943090649
:1019700005D46FF0800101612046FFF747FE206823
:101980000169C943490609D4C168C943490605D458
:101990006FF040010161204600F04CF820680169B9
:1019A000C94389060BD4C168C943890607D46FF0BF
:1019B000200101612046BDE87040FFF728BE70BDE0
:1019C00070477047174910B5884229D1164800F072
:1019D00099FA164800F0F0FC154800F047FC13484F
:1019E00000F0B2FC124800F0E5FB0F4800F068FB85
:1019F0000D4800F0DBFA0C4800F022FA0C48B0F970
:101A00001400FEF71FFD0848B0F96430B0F9482013
:101A1000B0F92C10B0F91000BDE81040FEF7EEBC94
:101A200010BD00008C0000207C0100206404002018
:101A3000980300207047FEE70F4810B50D4901607C
:101A40000221416000214FF450228160C0E903125D
:101A50004FF400124261017641768176C1760177BA
:101A60004177FEF7AAFF002803D0BDE81040FEF73B
:101A700032BD10BD006400403C0000200F4810B58E
:101A80000D4901600221416000214FF45022816024
:101A9000C0E903124FF4001242610176417681766B
:101AA000C17601774177FEF788FF002803D0BDE8B3
:101AB0001040FEF710BD10BD00680040640000201B
:101AC0000D4808B5816941F020018161816901F00B
:101AD00020010091816941F008018161816901F073
:101AE00008010091816941F004018161806900F081
:101AF0000400009008BD00000010024010B586B040
:101B000000241748009401940294039404944FF025
:101B10008041059401602421C0E901144FF47A71D9
:101B2000C0E9031480218161FFF7ACFD08B1FEF725
:101B3000D2FC4FF48050009069460948FFF71EFE22
:101B400008B1FEF7C8FC049404A905480594FFF702
:101B50005FFD002801D0FEF7BEFC06B010BD0000FE
:101B60008C000020FEE710B5038803810A8852BA72
:101B700002804C88D31A64BA44808C88B3F5805FA5
:101B800064BA848089798171C16801DD491E03E0EE
:101B900013F5805F01DA491CC16002EB413101613C
:101BA00010BDFEE72DE9F041040059D0206C6064BF
:101BB000E66B2664C4E90621104600F0EFFE0546F8
:101BC000E0632946606800F0E1FD60622946A06894
:101BD00000F0DCFDA16A00F03BFC0746A062606BF0
:101BE000A063206B60633146284600F0D7FE0146B3
:101BF0002063E06800F0CAFDE0623846616900F0E9
:101C000091FE606908D380F00040A16A00F08AFE6E
:101C100003D2606980F00040A062D4E9090100F0BD
:101C200017FCE16A00F014FC2062216900F07AFEE2
:101C3000206908D380F00040216A00F073FE03D2CF
:101C4000206980F000402062A16C206A00F06AFDEB
:101C500009D8A06C216A80F0004000F063FD02D832
:101C60000020BDE8F081206AFBE730B50028039C26
:101C700016D0002914D00D6845604D6885608968CC
:101C800000F10C0585E80E000021816341630163CA
:101C90000162C16281624162416401648464C16322
:101CA00030BD70477047FFF737B9000070B594B08A
:101CB00038216846FEF731FB14210EA8FEF72DFBF4
:101CC000012500242804CDE902040226CDE908609C
:101CD0000095059501944FF4E010CDE90A0468469B
:101CE000FFF78EFA08B172B6FEE70F20CDE90E06B7
:101CF0004FF48060CDE9104002210EA81294FFF746
:101D0000A3F908B172B6FEE70148056714B070BDCB
:101D100000004242704700000148FFF79EBD0000EE
:101D20008C000020F0B50268194B1A4C1A4D1B4E5E
:101D30004FF08047984207D0B84205D0A04203D068
:101D4000A84201D0B04204D122F0700C4A6842EAA5
:101D50000C02984207D0B84205D0A04203D0A84256
:101D600001D0B04203D122F44074CA6822434C69C6
:101D700022F08002224302608A68C2620A6882629C
:101D8000984201D10969016301214161F0BD000060
:101D9000002C01400004004000080040000C0040FE
:101DA00010B5846842EA032224F47F440A432243A4
:101DB000826010BD826822F070020A4342F007017F
:101DC0008160704710B5036A046A24F0010404625C
:101DD000846924F0F00444EA021423F00A020A435E
:101DE0008461026210BD10B5036A046A24F0100415
:101DF0000462846923F0A00324F4704444EA0232AC
:101E000043EA01118261016210BDFEE70A8852BAFD
:101E100002804A8852BA4280898849BA81807047D4
:101E20000907090E002804DB00F1E02080F8001407
:101E3000704700F00F0000F1E02080F8141D70479B
:101E40002DE9FF410026044600F5FE70009601963C
:101E50000296039607C835466B4600F04BF9E846F4
:101E6000C5EBC50004EB800758F825103046F96033
:101E700000F058FC00D2FE686D1CEDB2042DEFD3CB
:101E80004FF08140864212DD314600F055FB064698
:101E90005FF00005C5EBC50004EB80073146F8682C
:101EA00000F074FC6D1CEDB2F860042DF2D3002537
:101EB000C5EBC50004EB8000D0E9021205EB45003C
:101EC00000EB051004EB80007430FFF76BFE6D1C17
:101ED000EDB2042DECD3002505EB450000EB051019
:101EE00004EB8000D0F8940000F0E8FBC5EBC501DE
:101EF00004EB81016D1CEDB20882042DECD3BDE82A
:101F0000FF8100002DE9F047040048D0254F00254F
:101F1000C5EBC50004EB80067068B0F9020000F064
:101F2000E9FB394600F032FC6D1CEDB2B060042DC7
:101F3000EED3A668656A3146284600F02FFDD4F836
:101F40004080414600F084FAE76D394600F026FDF6
:101F50006FF00109494600F0C8FDC4F8F00186F0B1
:101F60000040294600F01AFD0546414600F070FA8F
:101F7000394600F06DFA494600F0B7FDC4F8F401A7
:101F80002846414600F00AFD394600F007FD494663
:101F900000F0ABFD044900F0CFFAC4F8F801BDE849
:101FA000F08700000A01DA39CDCC4C3E10B504466A
:101FB0000648074A016A04F5D270FFF7F3FDD4F82A
:101FC000C40180F00040C4F8040210BD9803002052
:101FD000CD4C1B432DE9F843044600F0E3F80025FF
:101FE0001B4FDFF870802E462060284600F0C4F8B2
:101FF000C5EBC50104EB81013B46486005EB45009C
:1020000000EB051004EB8000424613497430009643
:10201000FFF72BFE6D1CEDB2042DE6D30F480E49E1
:102020008507009000232A460C3104F5D270FFF793
:102030001CFE6842C4E982504FF07F50C4F8100281
:102040000748C4F814022046BDE8F843FFF75ABF1A
:102050000000FA4400007A46942B0008CDCC4C3E98
:102060000000C0BF2DE9F0410D460646002A20D0F1
:10207000002E1ED0002D1CD01168B1F9000000F117
:102080000A02152A00D20020B1F9024004F10A0127
:10209000152900D2002400F02DFB074900F076FB43
:1020A0000746204600F026FB044900F06FFB37602E
:1020B0002860BDE8F0810000A69BC43B0AD7A3BB03
:1020C0001CB5040015D0002000900190684601A9BD
:1020D0002246FFF7C7FFD4E9822104F5FE74009879
:1020E00000F038F82060D4E90521019800F032F8BA
:1020F00060601CBD2DE9F0410F4606461D4614499F
:10210000104600F043FB044686F00040394600F0DC
:1021100045FC214600F042FC68603946304600F03C
:102120003DFC214600F03AFCE8603946304600F0BC
:102130008FF9214600F032FCA8603946304600F0A5
:1021400022FC214600F02AFC2860BDE8F081000056
:10215000CDCC4C3E70B514460D46064600F0E2FA72
:1021600001D2284670BD2146304600F0DBFB01D28B
:10217000204670BD304670BD00F00300024900EB00
:10218000800001EB80007047040100200048704788
:102190001400002000487047540100200048704798
:1021A00016000020004870471800002000487047C3
:1021B0006801002070B5036804460022B3F90410DA
:1021C0002948B1F5A57F09DB0188491C09B20180C6
:1021D0001E2903D1218E491E21860280B3F90410E5
:1021E00011F5A57F09DC4188491C09B241801E29EF
:1021F00003D1218E491C218642806568B4F93000E4
:10220000B5F90010411AB42902DDA0F5B47020869A
:10221000B4F93000B5F90010411A11F1B40F02DA27
:1022200000F5B4702086B4F9300000F063FA064679
:10223000B5F9000000F05EFA0146324604F1800074
:10224000FFF7B0FC0546E062A068B0F9020000F0BC
:1022500051FA01462A4604F13400FFF7A3FC00F0CE
:102260002DFAA08270BD00003600002070B5040079
:1022700010D0A568B5F9020000F03CFAE0602869CA
:1022800000F038FA6FF00C0100F02FFC024900F06A
:102290007DFA206270BD00000000B44338B50446EA
:1022A000FFF780FF2060FFF771FF6060FFF77EFFA0
:1022B000A06000250C4B0D4A0D4904F180000095EB
:1022C000FFF7D3FC0A490B4B0B4A0C3104F13400E5
:1022D0000095FFF7CAFC2D20208608486062204642
:1022E000BDE83840FFF7C2BFCDCC4C3E00008C4269
:1022F000AC2B000800007A440060EA46CD4C1B433A
:10230000FEF712FEFFF7D2FCFFF7DAFBFFF794FBB4
:10231000FFF7B4FBFFF7F2FBFEF7B0F80648FFF754
:1023200059FE064800F066F80548FFF7B7FF054874
:10233000FFF7F2F9FEE700007C01002064040020B2
:10234000980300208C00002070B504460068B0F9A6
:102350000000B0F5A57F09DB208C38B94FF07E5125
:10236000E06A00F075F8E062012020841049E06A1C
:1023700000F00CFA0546A062E06900F0BBF90146E6
:102380002A4604F18000FFF70DFC054620636068D3
:10239000B0F9020000F0AEF901462A4604F134001B
:1023A000FFF700FC00F08AF90249088270BD0000C6
:1023B0000040F7446404002070B5040015D065683F
:1023C000B5F9020000F096F9084900F0DFF9A060C5
:1023D000286900F08FF96FF00C0100F086FB0449CA
:1023E00000F0D4F900F06AF9E06170BD0A01DA3951
:1023F0000000B44338B50446FFF7D0FE2060FFF775
:10240000C9FE60600C4D0D4B0D4A0E4904F1800071
:102410000095FFF72AFC0B490B4B0C4A0C3104F1D9
:1024200034000095FFF721FC2046FFF7C5FF002090
:102430002063E062208438BD0000C8420080BB44B5
:1024400000803B45C42B00080080BB4500007A4655
:1024500090EA010F48BF81F0004100F1A682421AC4
:102460003CBF801A89184FEAD0524FF07F4C1CEACB
:10247000410FA2EBD15318BF9CEA026F00F03B80E2
:102480004FF0004C4CEA00204CEA012121FA03FCF9
:1024900010EB0C0C1ED202F1FF325FEA1C2040EB65
:1024A000C25038BF70471CF07F0F4FEA400C18BF76
:1024B000BCF17F4F38BF7047C3F12003994008BF7C
:1024C00020F00100BCF17F4F38BF7047A0F1C04041
:1024D00000F023BA4FEA3C00000A40EBC25028BF8C
:1024E0001CF0FF0F4FEA400CE6D018BFBCF17F4F45
:1024F00038BF7047EAE79CEA026F05D010EA5C0F2C
:1025000008BF00F00040704710B500F0C0F900BFF0
:1025100064FBBE3E014800F0B6BA00BF0000C07FB9
:10252000401058BFC0F14040491058BFC1F1404170
:102530008142EFF3008070474FF47F0C1CEAD01209
:102540001EBF1CEAD11392EA0C0F93EA0C0F00F0A5
:10255000858090EA010F48BF42F4807240F4000C7D
:1025600041F400002CF07F4120F07F4000B5814213
:10257000A2EB03020FF2081CACEB504EC0F10000BE
:102580009EF800E04FEA4E0E00FB0EFC38BF4900FB
:102590004FEA2C1C02F5FA020CFB0EF34FEACE1E9A
:1025A0004FEA112C4FEAC1210EEB635E42EB22424F
:1025B0000EFB0CFC4FEA1C5300FB03114FEA112CDD
:1025C0004FEA01310EFB0CFC4FEADC4C00FB0C1116
:1025D000C14228BF09184CEB03335DF804EB10EB44
:1025E000410143EBC250B2F57C0F38BF704729D58B
:1025F00012F0F00F1CBF00F1C04000F00040704727
:10260000008182838485868788898B8C8D8E8F91CB
:102610009293959697999A9C9D9FA0A2A3A5A7A8EF
:10262000AAACAEB0B2B3B5B7B9BCBEC0C2C5C7C91B
:10263000CCCED1D4D7D9DCDFE2E6E9ECF0F3F7FA7F
:10264000FE0000004FEA400C0CF1807CBCF17E4F94
:1026500028BF7047B0F1C04000F05FB990EA010FA9
:102660000CEAD11348BF42F48072624538BF63451B
:1026700007D213F47F0F16D080EA010000F000406B
:10268000704710B500F003F9097EFC3E00F005B874
:1026900080EA010000F00040704780EA010000F08D
:1026A000004000F03AB912F47F0F04BF02487047AF
:1026B00080EA010000F031B90000C07F41000B0E3C
:1026C000D3F19E0208D950F400034FEA032323FA02
:1026D00002F048BF4042704710B500F0D8F800BF84
:1026E00049922480002070476FF0004282EA200067
:1026F0007047000010F0004148BF4042B0FA80F33C
:1027000010FA03F2C3F19D030BD051EAC35101EB60
:102710001220530638BF704700F1010008BF20F0B7
:102720000100704750EA010C00F113801CF5000F06
:1027300058BFBCF5000F01D48842704707D710F589
:10274000000F58BF11F5000F15D488427047894219
:1027500070471CF5000F04D5BCF5000FF7D581427A
:1027600070474FF0807C1CEB400F38BF1CEB410FD3
:1027700001D28142704710B500F089F892244900D7
:102780004FF000504FF08051FFF7CABE4FF47F0C5E
:102790001CEAD0121EBF1CEAD11392EA0C0F93EA76
:1027A0000C0F00F0478090EA010F48BF42F480729E
:1027B0004FF0004C4CEA00204CEA012102EB0302EE
:1027C000A0FB0113A2F50002002918BF43F001038A
:1027D0005B0028BF4FEA330342EB22425FEA132C2F
:1027E0004CEBC2502EBFBCEB436FB2F57C0F704771
:1027F0004FEA036CBCF1004F08BF20F00100B2F5B6
:102800007C0F38BF70470BD582F0FF0212F5803F76
:10281000C8BF704700F1C040D8BF00F0004070470B
:1028200000F5000C5FEA4C0C48BF7047B0F1C040A7
:1028300000F073B890EA010F0CEAD11348BF42F4DC
:102840008072624538BF634504D280EA010000F01F
:102850000040704710B500F01AF800BF8900013E33
:1028600000F007B800F009B85FEA410C5FEA1C6CA1
:1028700008D080EA010000F050B85FEA400C5FEA3F
:102880001C6CF6D14FF00040A0F5800070470EF1AF
:10289000020E2EF0030E5EF8044B244204D44FEADD
:1028A0004102B2F17F4F11D84FEA4003B3F17F4F9D
:1028B0000CD80ED14FEAD07CB2F17F4F0CEB4C0C10
:1028C0000CF1020C08BF4CEBD17C04E04FF0080C7B
:1028D00001E04FEAD17C0CEB4C0324FA03F404F042
:1028E0000704B4F1040C06D20EEB840CBDE81040D2
:1028F0004CF0010C6047DFE80CF0070802024FF0D3
:102900000040A0F5800010BD0846420018BFD2F17B
:10291000807288BF00F0004010BDFF2141EAD05016
:10292000C005704751EA000C00F113801CF5000F40
:1029300058BFBCF5000F01D48142704707D711F58D
:10294000000F58BF10F5000F15D48142704789421F
:1029500070471CF5000F04D5BCF5000FF7D5884271
:1029600070474FF0807C1CEB410F38BF1CEB400FD1
:1029700001D28842704780EA010081EA000180EAC2
:102980000100FFF7F8BE80F0004090EA010F7FF5EC
:1029900066AD81F0004100F008B8000090EA010F38
:1029A00048BF81F000413FF55AAD421A04D882F089
:1029B0000042A0EB020011444FEAD0524FF07F4C8E
:1029C0001CEA410FA2EBD15318BF9CEA026F4AD018
:1029D0004FF0004C4CEA00204CEA012121FA03FCA4
:1029E000B0EB0C0C0FD412F0FE0F36D05FEA4C00A7
:1029F0001DD5001240EBC25038BF70471CF03F0F8E
:102A000018BF70470BE0A2F101025FEA1C2040EB07
:102A1000C25038BF70471CF07F0F18BF7047C3F11A
:102A20002003994014BF401E20F001007047800829
:102A30004FEA122308BF7047B0FA80FCA2EB0C02E9
:102A4000CCF1280C60FA0CF093EA122F04BF00EBD3
:102A5000C25070474FEAC3707047130A5FEADC1038
:102A600008BF7047F6E79CEA026F04D010EA5C0FDB
:102A700008BF0020704710B5FFF709FF40DFF63EA2
:102A800081F0004070470CF00F03092B08BF0820AD
:102A900000F051800A2B0BD0082B18BF704708BFDD
:102AA0001CF0400F0AD04FF000004FF000017047BB
:102AB0001CF0400F18BF4FF0004070471CF0100F83
:102AC00008D020F0704300F07F4242EAD3014FEA81
:102AD0004370704700F0604021F07F4242EA0002FC
:102AE00001F07F4040EA727070474FF0FF0212EA37
:102AF000D0521CBF92F0FF038B42C2BFD14200EB09
:102B0000C1507047002A0AD0002B0BD0002900F0DA
:102B10000040A4BF40F0FE4040F40000704700F0C9
:102B20000040704743024FF00B0C18BF4CF0806C14
:102B30007FF4F0AC70471CF4801F11D01CF4E02F20
:102B400003D06FEACC31490070474FF04050EFF3AB
:102B5000008222F0704242EA000282F3008870474D
:102B60004FF0000070470000040506070809000048
:102B70000000000D0102030405060708090A0B0CFA
:102B80000D0E0F1000000000000000000102030401
:102B90000607080900606A460000204100000000A6
:102BA0000000803F00000000000000000000E04046
:102BB000000000000000803F000082436F12833A53
:102BC0000000803F00002041000000000000204184
:102BD0000000F041000020400000F041FC2B000804
:102BE000000000203C0000008C010008382C000888
:102BF0003C000020540B0000A80100080000000069
:102C00000100000010000000000000000024F4009B
:102C100000000000000000000000000000000000B4
:102C200000000000000000000000000000000000A4
:082C300000000000000000009C
:04000005080001519D
:00000001FF
